{
  "_format": "hh-sol-artifact-1",
  "contractName": "ArcSignProTestnet",
  "sourceName": "contracts/ArcSignProTestnet.sol",
  "abi": [
    {
      "inputs": [
        {
          "internalType": "address",
          "name": "_treasury",
          "type": "address"
        }
      ],
      "stateMutability": "nonpayable",
      "type": "constructor"
    },
    {
      "inputs": [],
      "name": "ERC721EnumerableForbiddenBatchMint",
      "type": "error"
    },
    {
      "inputs": [
        {
          "internalType": "address",
          "name": "sender",
          "type": "address"
        },
        {
          "internalType": "uint256",
          "name": "tokenId",
          "type": "uint256"
        },
        {
          "internalType": "address",
          "name": "owner",
          "type": "address"
        }
      ],
      "name": "ERC721IncorrectOwner",
      "type": "error"
    },
    {
      "inputs": [
        {
          "internalType": "address",
          "name": "operator",
          "type": "address"
        },
        {
          "internalType": "uint256",
          "name": "tokenId",
          "type": "uint256"
        }
      ],
      "name": "ERC721InsufficientApproval",
      "type": "error"
    },
    {
      "inputs": [
        {
          "internalType": "address",
          "name": "approver",
          "type": "address"
        }
      ],
      "name": "ERC721InvalidApprover",
      "type": "error"
    },
    {
      "inputs": [
        {
          "internalType": "address",
          "name": "operator",
          "type": "address"
        }
      ],
      "name": "ERC721InvalidOperator",
      "type": "error"
    },
    {
      "inputs": [
        {
          "internalType": "address",
          "name": "owner",
          "type": "address"
        }
      ],
      "name": "ERC721InvalidOwner",
      "type": "error"
    },
    {
      "inputs": [
        {
          "internalType": "address",
          "name": "receiver",
          "type": "address"
        }
      ],
      "name": "ERC721InvalidReceiver",
      "type": "error"
    },
    {
      "inputs": [
        {
          "internalType": "address",
          "name": "sender",
          "type": "address"
        }
      ],
      "name": "ERC721InvalidSender",
      "type": "error"
    },
    {
      "inputs": [
        {
          "internalType": "uint256",
          "name": "tokenId",
          "type": "uint256"
        }
      ],
      "name": "ERC721NonexistentToken",
      "type": "error"
    },
    {
      "inputs": [
        {
          "internalType": "address",
          "name": "owner",
          "type": "address"
        },
        {
          "internalType": "uint256",
          "name": "index",
          "type": "uint256"
        }
      ],
      "name": "ERC721OutOfBoundsIndex",
      "type": "error"
    },
    {
      "inputs": [
        {
          "internalType": "address",
          "name": "owner",
          "type": "address"
        }
      ],
      "name": "OwnableInvalidOwner",
      "type": "error"
    },
    {
      "inputs": [
        {
          "internalType": "address",
          "name": "account",
          "type": "address"
        }
      ],
      "name": "OwnableUnauthorizedAccount",
      "type": "error"
    },
    {
      "inputs": [],
      "name": "ReentrancyGuardReentrantCall",
      "type": "error"
    },
    {
      "anonymous": false,
      "inputs": [
        {
          "indexed": true,
          "internalType": "address",
          "name": "owner",
          "type": "address"
        },
        {
          "indexed": true,
          "internalType": "address",
          "name": "approved",
          "type": "address"
        },
        {
          "indexed": true,
          "internalType": "uint256",
          "name": "tokenId",
          "type": "uint256"
        }
      ],
      "name": "Approval",
      "type": "event"
    },
    {
      "anonymous": false,
      "inputs": [
        {
          "indexed": true,
          "internalType": "address",
          "name": "owner",
          "type": "address"
        },
        {
          "indexed": true,
          "internalType": "address",
          "name": "operator",
          "type": "address"
        },
        {
          "indexed": false,
          "internalType": "bool",
          "name": "approved",
          "type": "bool"
        }
      ],
      "name": "ApprovalForAll",
      "type": "event"
    },
    {
      "anonymous": false,
      "inputs": [
        {
          "indexed": false,
          "internalType": "string",
          "name": "newBaseURI",
          "type": "string"
        }
      ],
      "name": "BaseURIUpdated",
      "type": "event"
    },
    {
      "anonymous": false,
      "inputs": [
        {
          "indexed": true,
          "internalType": "address",
          "name": "owner",
          "type": "address"
        },
        {
          "indexed": true,
          "internalType": "uint256",
          "name": "tokenId",
          "type": "uint256"
        },
        {
          "indexed": false,
          "internalType": "uint256",
          "name": "expiresAt",
          "type": "uint256"
        }
      ],
      "name": "MembershipMinted",
      "type": "event"
    },
    {
      "anonymous": false,
      "inputs": [
        {
          "indexed": true,
          "internalType": "uint256",
          "name": "tokenId",
          "type": "uint256"
        },
        {
          "indexed": false,
          "internalType": "uint256",
          "name": "newExpiresAt",
          "type": "uint256"
        }
      ],
      "name": "MembershipRenewed",
      "type": "event"
    },
    {
      "anonymous": false,
      "inputs": [
        {
          "indexed": true,
          "internalType": "address",
          "name": "previousOwner",
          "type": "address"
        },
        {
          "indexed": true,
          "internalType": "address",
          "name": "newOwner",
          "type": "address"
        }
      ],
      "name": "OwnershipTransferred",
      "type": "event"
    },
    {
      "anonymous": false,
      "inputs": [
        {
          "indexed": true,
          "internalType": "address",
          "name": "from",
          "type": "address"
        },
        {
          "indexed": true,
          "internalType": "address",
          "name": "to",
          "type": "address"
        },
        {
          "indexed": true,
          "internalType": "uint256",
          "name": "tokenId",
          "type": "uint256"
        }
      ],
      "name": "Transfer",
      "type": "event"
    },
    {
      "anonymous": false,
      "inputs": [
        {
          "indexed": true,
          "internalType": "address",
          "name": "oldTreasury",
          "type": "address"
        },
        {
          "indexed": true,
          "internalType": "address",
          "name": "newTreasury",
          "type": "address"
        }
      ],
      "name": "TreasuryUpdated",
      "type": "event"
    },
    {
      "anonymous": false,
      "inputs": [
        {
          "indexed": true,
          "internalType": "address",
          "name": "to",
          "type": "address"
        },
        {
          "indexed": false,
          "internalType": "uint256",
          "name": "amount",
          "type": "uint256"
        }
      ],
      "name": "Withdrawn",
      "type": "event"
    },
    {
      "inputs": [],
      "name": "DURATION",
      "outputs": [
        {
          "internalType": "uint256",
          "name": "",
          "type": "uint256"
        }
      ],
      "stateMutability": "view",
      "type": "function"
    },
    {
      "inputs": [],
      "name": "PRICE",
      "outputs": [
        {
          "internalType": "uint256",
          "name": "",
          "type": "uint256"
        }
      ],
      "stateMutability": "view",
      "type": "function"
    },
    {
      "inputs": [
        {
          "internalType": "address",
          "name": "to",
          "type": "address"
        },
        {
          "internalType": "uint256",
          "name": "tokenId",
          "type": "uint256"
        }
      ],
      "name": "approve",
      "outputs": [],
      "stateMutability": "nonpayable",
      "type": "function"
    },
    {
      "inputs": [
        {
          "internalType": "address",
          "name": "owner",
          "type": "address"
        }
      ],
      "name": "balanceOf",
      "outputs": [
        {
          "internalType": "uint256",
          "name": "",
          "type": "uint256"
        }
      ],
      "stateMutability": "view",
      "type": "function"
    },
    {
      "inputs": [
        {
          "internalType": "uint256",
          "name": "",
          "type": "uint256"
        }
      ],
      "name": "expiresAt",
      "outputs": [
        {
          "internalType": "uint256",
          "name": "",
          "type": "uint256"
        }
      ],
      "stateMutability": "view",
      "type": "function"
    },
    {
      "inputs": [
        {
          "internalType": "uint256",
          "name": "tokenId",
          "type": "uint256"
        }
      ],
      "name": "getApproved",
      "outputs": [
        {
          "internalType": "address",
          "name": "",
          "type": "address"
        }
      ],
      "stateMutability": "view",
      "type": "function"
    },
    {
      "inputs": [
        {
          "internalType": "address",
          "name": "owner",
          "type": "address"
        }
      ],
      "name": "getMemberships",
      "outputs": [
        {
          "internalType": "uint256[]",
          "name": "tokenIds",
          "type": "uint256[]"
        },
        {
          "internalType": "uint256[]",
          "name": "expirations",
          "type": "uint256[]"
        },
        {
          "internalType": "bool[]",
          "name": "valid",
          "type": "bool[]"
        }
      ],
      "stateMutability": "view",
      "type": "function"
    },
    {
      "inputs": [
        {
          "internalType": "address",
          "name": "owner",
          "type": "address"
        },
        {
          "internalType": "address",
          "name": "operator",
          "type": "address"
        }
      ],
      "name": "isApprovedForAll",
      "outputs": [
        {
          "internalType": "bool",
          "name": "",
          "type": "bool"
        }
      ],
      "stateMutability": "view",
      "type": "function"
    },
    {
      "inputs": [
        {
          "internalType": "address",
          "name": "owner",
          "type": "address"
        }
      ],
      "name": "isValidMember",
      "outputs": [
        {
          "internalType": "bool",
          "name": "",
          "type": "bool"
        }
      ],
      "stateMutability": "view",
      "type": "function"
    },
    {
      "inputs": [],
      "name": "mint",
      "outputs": [],
      "stateMutability": "payable",
      "type": "function"
    },
    {
      "inputs": [],
      "name": "name",
      "outputs": [
        {
          "internalType": "string",
          "name": "",
          "type": "string"
        }
      ],
      "stateMutability": "view",
      "type": "function"
    },
    {
      "inputs": [],
      "name": "owner",
      "outputs": [
        {
          "internalType": "address",
          "name": "",
          "type": "address"
        }
      ],
      "stateMutability": "view",
      "type": "function"
    },
    {
      "inputs": [
        {
          "internalType": "uint256",
          "name": "tokenId",
          "type": "uint256"
        }
      ],
      "name": "ownerOf",
      "outputs": [
        {
          "internalType": "address",
          "name": "",
          "type": "address"
        }
      ],
      "stateMutability": "view",
      "type": "function"
    },
    {
      "inputs": [
        {
          "internalType": "uint256",
          "name": "tokenId",
          "type": "uint256"
        }
      ],
      "name": "renew",
      "outputs": [],
      "stateMutability": "payable",
      "type": "function"
    },
    {
      "inputs": [],
      "name": "renounceOwnership",
      "outputs": [],
      "stateMutability": "nonpayable",
      "type": "function"
    },
    {
      "inputs": [
        {
          "internalType": "address",
          "name": "from",
          "type": "address"
        },
        {
          "internalType": "address",
          "name": "to",
          "type": "address"
        },
        {
          "internalType": "uint256",
          "name": "tokenId",
          "type": "uint256"
        }
      ],
      "name": "safeTransferFrom",
      "outputs": [],
      "stateMutability": "nonpayable",
      "type": "function"
    },
    {
      "inputs": [
        {
          "internalType": "address",
          "name": "from",
          "type": "address"
        },
        {
          "internalType": "address",
          "name": "to",
          "type": "address"
        },
        {
          "internalType": "uint256",
          "name": "tokenId",
          "type": "uint256"
        },
        {
          "internalType": "bytes",
          "name": "data",
          "type": "bytes"
        }
      ],
      "name": "safeTransferFrom",
      "outputs": [],
      "stateMutability": "nonpayable",
      "type": "function"
    },
    {
      "inputs": [
        {
          "internalType": "address",
          "name": "operator",
          "type": "address"
        },
        {
          "internalType": "bool",
          "name": "approved",
          "type": "bool"
        }
      ],
      "name": "setApprovalForAll",
      "outputs": [],
      "stateMutability": "nonpayable",
      "type": "function"
    },
    {
      "inputs": [
        {
          "internalType": "string",
          "name": "baseURI",
          "type": "string"
        }
      ],
      "name": "setBaseURI",
      "outputs": [],
      "stateMutability": "nonpayable",
      "type": "function"
    },
    {
      "inputs": [
        {
          "internalType": "address",
          "name": "newTreasury",
          "type": "address"
        }
      ],
      "name": "setTreasury",
      "outputs": [],
      "stateMutability": "nonpayable",
      "type": "function"
    },
    {
      "inputs": [
        {
          "internalType": "bytes4",
          "name": "interfaceId",
          "type": "bytes4"
        }
      ],
      "name": "supportsInterface",
      "outputs": [
        {
          "internalType": "bool",
          "name": "",
          "type": "bool"
        }
      ],
      "stateMutability": "view",
      "type": "function"
    },
    {
      "inputs": [],
      "name": "symbol",
      "outputs": [
        {
          "internalType": "string",
          "name": "",
          "type": "string"
        }
      ],
      "stateMutability": "view",
      "type": "function"
    },
    {
      "inputs": [
        {
          "internalType": "uint256",
          "name": "tokenId",
          "type": "uint256"
        }
      ],
      "name": "timeUntilExpiry",
      "outputs": [
        {
          "internalType": "uint256",
          "name": "",
          "type": "uint256"
        }
      ],
      "stateMutability": "view",
      "type": "function"
    },
    {
      "inputs": [
        {
          "internalType": "uint256",
          "name": "index",
          "type": "uint256"
        }
      ],
      "name": "tokenByIndex",
      "outputs": [
        {
          "internalType": "uint256",
          "name": "",
          "type": "uint256"
        }
      ],
      "stateMutability": "view",
      "type": "function"
    },
    {
      "inputs": [
        {
          "internalType": "address",
          "name": "owner",
          "type": "address"
        },
        {
          "internalType": "uint256",
          "name": "index",
          "type": "uint256"
        }
      ],
      "name": "tokenOfOwnerByIndex",
      "outputs": [
        {
          "internalType": "uint256",
          "name": "",
          "type": "uint256"
        }
      ],
      "stateMutability": "view",
      "type": "function"
    },
    {
      "inputs": [
        {
          "internalType": "uint256",
          "name": "tokenId",
          "type": "uint256"
        }
      ],
      "name": "tokenURI",
      "outputs": [
        {
          "internalType": "string",
          "name": "",
          "type": "string"
        }
      ],
      "stateMutability": "view",
      "type": "function"
    },
    {
      "inputs": [],
      "name": "totalSupply",
      "outputs": [
        {
          "internalType": "uint256",
          "name": "",
          "type": "uint256"
        }
      ],
      "stateMutability": "view",
      "type": "function"
    },
    {
      "inputs": [
        {
          "internalType": "address",
          "name": "from",
          "type": "address"
        },
        {
          "internalType": "address",
          "name": "to",
          "type": "address"
        },
        {
          "internalType": "uint256",
          "name": "tokenId",
          "type": "uint256"
        }
      ],
      "name": "transferFrom",
      "outputs": [],
      "stateMutability": "nonpayable",
      "type": "function"
    },
    {
      "inputs": [
        {
          "internalType": "address",
          "name": "newOwner",
          "type": "address"
        }
      ],
      "name": "transferOwnership",
      "outputs": [],
      "stateMutability": "nonpayable",
      "type": "function"
    },
    {
      "inputs": [],
      "name": "treasury",
      "outputs": [
        {
          "internalType": "address",
          "name": "",
          "type": "address"
        }
      ],
      "stateMutability": "view",
      "type": "function"
    },
    {
      "inputs": [
        {
          "internalType": "address",
          "name": "to",
          "type": "address"
        },
        {
          "internalType": "uint256",
          "name": "amount",
          "type": "uint256"
        }
      ],
      "name": "withdraw",
      "outputs": [],
      "stateMutability": "nonpayable",
      "type": "function"
    },
    {
      "stateMutability": "payable",
      "type": "receive"
    }
  ],
  "bytecode": "0x60806040523480156200001157600080fd5b50604051620025e8380380620025e88339810160408190526200003491620001bb565b336040518060400160405280601381526020017f4172635369676e2050726f20546573746e6574000000000000000000000000008152506040518060400160405280600b81526020016a105490d41493cb551154d560aa1b8152508160009081620000a0919062000292565b506001620000af828262000292565b5050506001600160a01b038116620000e257604051631e4fbdf760e01b8152600060048201526024015b60405180910390fd5b620000ed8162000169565b506001600b556001600160a01b0381166200013e5760405162461bcd60e51b815260206004820152601060248201526f496e76616c696420747265617375727960801b6044820152606401620000d9565b600f80546001600160a01b0319166001600160a01b03929092169190911790556001600c556200035e565b600a80546001600160a01b038381166001600160a01b0319831681179093556040519116919082907f8be0079c531659141344cd1fd0a4f28419497f9722a3daafe3b4186f6b6457e090600090a35050565b600060208284031215620001ce57600080fd5b81516001600160a01b0381168114620001e657600080fd5b9392505050565b634e487b7160e01b600052604160045260246000fd5b600181811c908216806200021857607f821691505b6020821081036200023957634e487b7160e01b600052602260045260246000fd5b50919050565b601f8211156200028d57600081815260208120601f850160051c81016020861015620002685750805b601f850160051c820191505b81811015620002895782815560010162000274565b5050505b505050565b81516001600160401b03811115620002ae57620002ae620001ed565b620002c681620002bf845462000203565b846200023f565b602080601f831160018114620002fe5760008415620002e55750858301515b600019600386901b1c1916600185901b17855562000289565b600085815260208120601f198616915b828110156200032f578886015182559484019460019091019084016200030e565b50858210156200034e5787850151600019600388901b60f8161c191681555b5050505050600190811b01905550565b61227a806200036e6000396000f3fe6080604052600436106101dc5760003560e01c80635baa750911610102578063a22cb46511610095578063e985e9c511610064578063e985e9c51461054e578063f0f442601461056e578063f2fde38b1461058e578063f3fef3a3146105ae57600080fd5b8063a22cb465146104ce578063b88d4fde146104ee578063c87b56dd1461050e578063cae2740c1461052e57600080fd5b8063715018a6116100d1578063715018a61461046b5780638d859f3e146104805780638da5cb5b1461049b57806395d89b41146104b957600080fd5b80635baa7509146103f857806361d027b31461040b5780636352211e1461042b57806370a082311461044b57600080fd5b80631be052891161017a5780632f745c59116101495780632f745c591461037857806342842e0e146103985780634f6ccce7146103b857806355f804b3146103d857600080fd5b80631be05289146102f157806320785f9a1461030957806323b872dd146103385780632b01bf511461035857600080fd5b8063095ea7b3116101b6578063095ea7b3146102775780631249c58b1461029957806317c95709146102a157806318160ddd146102dc57600080fd5b806301ffc9a7146101e857806306fdde031461021d578063081812fc1461023f57600080fd5b366101e357005b600080fd5b3480156101f457600080fd5b50610208610203366004611c1c565b6105ce565b60405190151581526020015b60405180910390f35b34801561022957600080fd5b506102326105df565b6040516102149190611c89565b34801561024b57600080fd5b5061025f61025a366004611c9c565b610671565b6040516001600160a01b039091168152602001610214565b34801561028357600080fd5b50610297610292366004611cd1565b61069a565b005b6102976106a9565b3480156102ad57600080fd5b506102ce6102bc366004611c9c565b600d6020526000908152604090205481565b604051908152602001610214565b3480156102e857600080fd5b506008546102ce565b3480156102fd57600080fd5b506102ce6301e1338081565b34801561031557600080fd5b50610329610324366004611cfb565b610833565b60405161021493929190611d51565b34801561034457600080fd5b50610297610353366004611dbc565b6109d2565b34801561036457600080fd5b50610208610373366004611cfb565b610a5d565b34801561038457600080fd5b506102ce610393366004611cd1565b610ac3565b3480156103a457600080fd5b506102976103b3366004611dbc565b610b28565b3480156103c457600080fd5b506102ce6103d3366004611c9c565b610b48565b3480156103e457600080fd5b506102976103f3366004611df8565b610ba1565b610297610406366004611c9c565b610bf4565b34801561041757600080fd5b50600f5461025f906001600160a01b031681565b34801561043757600080fd5b5061025f610446366004611c9c565b610ddd565b34801561045757600080fd5b506102ce610466366004611cfb565b610de8565b34801561047757600080fd5b50610297610e30565b34801561048c57600080fd5b506102ce66038d7ea4c6800081565b3480156104a757600080fd5b50600a546001600160a01b031661025f565b3480156104c557600080fd5b50610232610e42565b3480156104da57600080fd5b506102976104e9366004611e6a565b610e51565b3480156104fa57600080fd5b50610297610509366004611ebc565b610e5c565b34801561051a57600080fd5b50610232610529366004611c9c565b610e74565b34801561053a57600080fd5b506102ce610549366004611c9c565b610edc565b34801561055a57600080fd5b50610208610569366004611f98565b610f60565b34801561057a57600080fd5b50610297610589366004611cfb565b610f8e565b34801561059a57600080fd5b506102976105a9366004611cfb565b611031565b3480156105ba57600080fd5b506102976105c9366004611cd1565b61106c565b60006105d98261119f565b92915050565b6060600080546105ee90611fcb565b80601f016020809104026020016040519081016040528092919081815260200182805461061a90611fcb565b80156106675780601f1061063c57610100808354040283529160200191610667565b820191906000526020600020905b81548152906001019060200180831161064a57829003601f168201915b5050505050905090565b600061067c826111c4565b506000828152600460205260409020546001600160a01b03166105d9565b6106a58282336111fd565b5050565b6106b161120a565b66038d7ea4c680003410156107045760405162461bcd60e51b8152602060048201526014602482015273125b9cdd59999a58da595b9d081c185e5b595b9d60621b60448201526064015b60405180910390fd5b600f546040516000916001600160a01b03169034908381818185875af1925050503d8060008114610751576040519150601f19603f3d011682016040523d82523d6000602084013e610756565b606091505b50509050806107a15760405162461bcd60e51b815260206004820152601760248201527614185e5b595b9d081d1c985b9cd9995c8819985a5b1959604a1b60448201526064016106fb565b600c8054600091826107b28361201b565b9190505590506107c23382611234565b60006107d26301e1338042612034565b6000838152600d60205260409081902082905551909150829033907ff2865733c560f01a6467cfb44c0992eee40fbd2efa39b93d19e5eff39ae144989061081c9085815260200190565b60405180910390a35050506108316001600b55565b565b6060806060600061084385610de8565b90508067ffffffffffffffff81111561085e5761085e611ea6565b604051908082528060200260200182016040528015610887578160200160208202803683370190505b5093508067ffffffffffffffff8111156108a3576108a3611ea6565b6040519080825280602002602001820160405280156108cc578160200160208202803683370190505b5092508067ffffffffffffffff8111156108e8576108e8611ea6565b604051908082528060200260200182016040528015610911578160200160208202803683370190505b50915060005b818110156109c957600061092b8783610ac3565b90508086838151811061094057610940612047565b602002602001018181525050600d60008281526020019081526020016000205485838151811061097257610972612047565b60200260200101818152505042600d600083815260200190815260200160002054118483815181106109a6576109a6612047565b9115156020928302919091019091015250806109c18161201b565b915050610917565b50509193909250565b6001600160a01b0382166109fc57604051633250574960e11b8152600060048201526024016106fb565b6000610a0983833361124e565b9050836001600160a01b0316816001600160a01b031614610a57576040516364283d7b60e01b81526001600160a01b03808616600483015260248201849052821660448201526064016106fb565b50505050565b600080610a6983610de8565b905060005b81811015610ab9576000610a828583610ac3565b6000818152600d6020526040902054909150421015610aa657506001949350505050565b5080610ab18161201b565b915050610a6e565b5060009392505050565b6000610ace83610de8565b8210610aff5760405163295f44f760e21b81526001600160a01b0384166004820152602481018390526044016106fb565b506001600160a01b03919091166000908152600660209081526040808320938352929052205490565b610b4383838360405180602001604052806000815250610e5c565b505050565b6000610b5360085490565b8210610b7c5760405163295f44f760e21b815260006004820152602481018390526044016106fb565b60088281548110610b8f57610b8f612047565b90600052602060002001549050919050565b610ba9611263565b600e610bb68284836120a3565b507f6741b2fc379fad678116fe3d4d4b9a1a184ab53ba36b86ad0fa66340b1ab41ad8282604051610be8929190612163565b60405180910390a15050565b610bfc61120a565b6000818152600260205260409020546001600160a01b0316610c575760405162461bcd60e51b8152602060048201526014602482015273151bdad95b88191bd95cc81b9bdd08195e1a5cdd60621b60448201526064016106fb565b66038d7ea4c68000341015610ca55760405162461bcd60e51b8152602060048201526014602482015273125b9cdd59999a58da595b9d081c185e5b595b9d60621b60448201526064016106fb565b600f546040516000916001600160a01b03169034908381818185875af1925050503d8060008114610cf2576040519150601f19603f3d011682016040523d82523d6000602084013e610cf7565b606091505b5050905080610d425760405162461bcd60e51b815260206004820152601760248201527614185e5b595b9d081d1c985b9cd9995c8819985a5b1959604a1b60448201526064016106fb565b6000828152600d60205260408120549042821015610d6f57610d686301e1338042612034565b9050610d80565b610d7d6301e1338083612034565b90505b6000848152600d6020526040908190208290555184907ff31970c2896632ef001d5a52920e1d099b23a57ee9a2dc661703cf93946ae3ba90610dc59084815260200190565b60405180910390a2505050610dda6001600b55565b50565b60006105d9826111c4565b60006001600160a01b038216610e14576040516322718ad960e21b8152600060048201526024016106fb565b506001600160a01b031660009081526003602052604090205490565b610e38611263565b6108316000611290565b6060600180546105ee90611fcb565b6106a53383836112e2565b610e678484846109d2565b610a573385858585611381565b6060610e7f826111c4565b506000610e8a6114ac565b90506000815111610eaa5760405180602001604052806000815250610ed5565b80610eb4846114bb565b604051602001610ec5929190612192565b6040516020818303038152906040525b9392505050565b6000818152600260205260408120546001600160a01b0316610f375760405162461bcd60e51b8152602060048201526014602482015273151bdad95b88191bd95cc81b9bdd08195e1a5cdd60621b60448201526064016106fb565b6000828152600d6020526040902054428111610f565750600092915050565b610ed542826121c1565b6001600160a01b03918216600090815260056020908152604080832093909416825291909152205460ff1690565b610f96611263565b6001600160a01b038116610fdf5760405162461bcd60e51b815260206004820152601060248201526f496e76616c696420747265617375727960801b60448201526064016106fb565b600f80546001600160a01b038381166001600160a01b0319831681179093556040519116919082907f4ab5be82436d353e61ca18726e984e561f5c1cc7c6d38b29d2553c790434705a90600090a35050565b611039611263565b6001600160a01b03811661106357604051631e4fbdf760e01b8152600060048201526024016106fb565b610dda81611290565b611074611263565b6001600160a01b0382166110be5760405162461bcd60e51b8152602060048201526011602482015270125b9d985b1a59081c9958da5c1a595b9d607a1b60448201526064016106fb565b6000826001600160a01b03168260405160006040518083038185875af1925050503d806000811461110b576040519150601f19603f3d011682016040523d82523d6000602084013e611110565b606091505b50509050806111575760405162461bcd60e51b8152602060048201526013602482015272109390881d1c985b9cd9995c8819985a5b1959606a1b60448201526064016106fb565b826001600160a01b03167f7084f5476618d8e60b11ef0d7d3f06914655adb8793e28ff7f018d4c76d505d58360405161119291815260200190565b60405180910390a2505050565b60006001600160e01b0319821663780e9d6360e01b14806105d957506105d98261154e565b6000818152600260205260408120546001600160a01b0316806105d957604051637e27328960e01b8152600481018490526024016106fb565b610b43838383600161159e565b6002600b540361122d57604051633ee5aeb560e01b815260040160405180910390fd5b6002600b55565b6106a58282604051806020016040528060008152506116a4565b600061125b8484846116bc565b949350505050565b600a546001600160a01b031633146108315760405163118cdaa760e01b81523360048201526024016106fb565b600a80546001600160a01b038381166001600160a01b0319831681179093556040519116919082907f8be0079c531659141344cd1fd0a4f28419497f9722a3daafe3b4186f6b6457e090600090a35050565b6001600160a01b03821661131457604051630b61174360e31b81526001600160a01b03831660048201526024016106fb565b6001600160a01b03838116600081815260056020908152604080832094871680845294825291829020805460ff191686151590811790915591519182527f17307eab39ab6107e8899845ad3d59bd9653f200f220920489ca2b5937696c31910160405180910390a3505050565b6001600160a01b0383163b156114a557604051630a85bd0160e11b81526001600160a01b0384169063150b7a02906113c39088908890879087906004016121d4565b6020604051808303816000875af19250505080156113fe575060408051601f3d908101601f191682019092526113fb91810190612211565b60015b611467573d80801561142c576040519150601f19603f3d011682016040523d82523d6000602084013e611431565b606091505b50805160000361145f57604051633250574960e11b81526001600160a01b03851660048201526024016106fb565b805160208201fd5b6001600160e01b03198116630a85bd0160e11b146114a357604051633250574960e11b81526001600160a01b03851660048201526024016106fb565b505b5050505050565b6060600e80546105ee90611fcb565b606060006114c883611789565b600101905060008167ffffffffffffffff8111156114e8576114e8611ea6565b6040519080825280601f01601f191660200182016040528015611512576020820181803683370190505b5090508181016020015b600019016f181899199a1a9b1b9c1cb0b131b232b360811b600a86061a8153600a850494508461151c57509392505050565b60006001600160e01b031982166380ac58cd60e01b148061157f57506001600160e01b03198216635b5e139f60e01b145b806105d957506301ffc9a760e01b6001600160e01b03198316146105d9565b80806115b257506001600160a01b03821615155b156116745760006115c2846111c4565b90506001600160a01b038316158015906115ee5750826001600160a01b0316816001600160a01b031614155b801561160157506115ff8184610f60565b155b1561162a5760405163a9fbf51f60e01b81526001600160a01b03841660048201526024016106fb565b81156116725783856001600160a01b0316826001600160a01b03167f8c5be1e5ebec7d5bd14f71427d1e84f3dd0314c0f7b2291e5b200ac8c7c3b92560405160405180910390a45b505b5050600090815260046020526040902080546001600160a01b0319166001600160a01b0392909216919091179055565b6116ae8383611861565b610b43336000858585611381565b6000806116ca8585856118c6565b90506001600160a01b0381166117275761172284600880546000838152600960205260408120829055600182018355919091527ff3f7a9fe364faab93b216da50a3214154f22a0a2b415b23a84c8169e8b636ee30155565b61174a565b846001600160a01b0316816001600160a01b03161461174a5761174a81856119bf565b6001600160a01b0385166117665761176184611a40565b61125b565b846001600160a01b0316816001600160a01b03161461125b5761125b8585611aef565b60008072184f03e93ff9f4daa797ed6e38ed64bf6a1f0160401b83106117c85772184f03e93ff9f4daa797ed6e38ed64bf6a1f0160401b830492506040015b6d04ee2d6d415b85acef810000000083106117f4576d04ee2d6d415b85acef8100000000830492506020015b662386f26fc10000831061181257662386f26fc10000830492506010015b6305f5e100831061182a576305f5e100830492506008015b612710831061183e57612710830492506004015b60648310611850576064830492506002015b600a83106105d95760010192915050565b6001600160a01b03821661188b57604051633250574960e11b8152600060048201526024016106fb565b60006118998383600061124e565b90506001600160a01b03811615610b43576040516339e3563760e11b8152600060048201526024016106fb565b6000828152600260205260408120546001600160a01b03908116908316156118f3576118f3818486611b3f565b6001600160a01b038116156119315761191060008560008061159e565b6001600160a01b038116600090815260036020526040902080546000190190555b6001600160a01b03851615611960576001600160a01b0385166000908152600360205260409020805460010190555b60008481526002602052604080822080546001600160a01b0319166001600160a01b0389811691821790925591518793918516917fddf252ad1be2c89b69c2b068fc378daa952ba7f163c4a11628f55a4df523b3ef91a4949350505050565b60006119ca83610de8565b6000838152600760209081526040808320546001600160a01b0388168452600690925290912091925090818314611a2157600083815260208281526040808320548584528184208190558352600790915290208290555b6000938452600760209081526040808620869055938552525081205550565b600854600090611a52906001906121c1565b60008381526009602052604081205460088054939450909284908110611a7a57611a7a612047565b906000526020600020015490508060088381548110611a9b57611a9b612047565b6000918252602080832090910192909255828152600990915260408082208490558582528120556008805480611ad357611ad361222e565b6001900381819060005260206000200160009055905550505050565b60006001611afc84610de8565b611b0691906121c1565b6001600160a01b039093166000908152600660209081526040808320868452825280832085905593825260079052919091209190915550565b611b4a838383611ba3565b610b43576001600160a01b038316611b7857604051637e27328960e01b8152600481018290526024016106fb565b60405163177e802f60e01b81526001600160a01b0383166004820152602481018290526044016106fb565b60006001600160a01b0383161580159061125b5750826001600160a01b0316846001600160a01b03161480611bdd5750611bdd8484610f60565b8061125b5750506000908152600460205260409020546001600160a01b03908116911614919050565b6001600160e01b031981168114610dda57600080fd5b600060208284031215611c2e57600080fd5b8135610ed581611c06565b60005b83811015611c54578181015183820152602001611c3c565b50506000910152565b60008151808452611c75816020860160208601611c39565b601f01601f19169290920160200192915050565b602081526000610ed56020830184611c5d565b600060208284031215611cae57600080fd5b5035919050565b80356001600160a01b0381168114611ccc57600080fd5b919050565b60008060408385031215611ce457600080fd5b611ced83611cb5565b946020939093013593505050565b600060208284031215611d0d57600080fd5b610ed582611cb5565b600081518084526020808501945080840160005b83811015611d4657815187529582019590820190600101611d2a565b509495945050505050565b606081526000611d646060830186611d16565b602083820381850152611d778287611d16565b8481036040860152855180825282870193509082019060005b81811015611dae578451151583529383019391830191600101611d90565b509098975050505050505050565b600080600060608486031215611dd157600080fd5b611dda84611cb5565b9250611de860208501611cb5565b9150604084013590509250925092565b60008060208385031215611e0b57600080fd5b823567ffffffffffffffff80821115611e2357600080fd5b818501915085601f830112611e3757600080fd5b813581811115611e4657600080fd5b866020828501011115611e5857600080fd5b60209290920196919550909350505050565b60008060408385031215611e7d57600080fd5b611e8683611cb5565b915060208301358015158114611e9b57600080fd5b809150509250929050565b634e487b7160e01b600052604160045260246000fd5b60008060008060808587031215611ed257600080fd5b611edb85611cb5565b9350611ee960208601611cb5565b925060408501359150606085013567ffffffffffffffff80821115611f0d57600080fd5b818701915087601f830112611f2157600080fd5b813581811115611f3357611f33611ea6565b604051601f8201601f19908116603f01168101908382118183101715611f5b57611f5b611ea6565b816040528281528a6020848701011115611f7457600080fd5b82602086016020830137600060208483010152809550505050505092959194509250565b60008060408385031215611fab57600080fd5b611fb483611cb5565b9150611fc260208401611cb5565b90509250929050565b600181811c90821680611fdf57607f821691505b602082108103611fff57634e487b7160e01b600052602260045260246000fd5b50919050565b634e487b7160e01b600052601160045260246000fd5b60006001820161202d5761202d612005565b5060010190565b808201808211156105d9576105d9612005565b634e487b7160e01b600052603260045260246000fd5b601f821115610b4357600081815260208120601f850160051c810160208610156120845750805b601f850160051c820191505b818110156114a357828155600101612090565b67ffffffffffffffff8311156120bb576120bb611ea6565b6120cf836120c98354611fcb565b8361205d565b6000601f84116001811461210357600085156120eb5750838201355b600019600387901b1c1916600186901b1783556114a5565b600083815260209020601f19861690835b828110156121345786850135825560209485019460019092019101612114565b50868210156121515760001960f88860031b161c19848701351681555b505060018560011b0183555050505050565b60208152816020820152818360408301376000818301604090810191909152601f909201601f19160101919050565b600083516121a4818460208801611c39565b8351908301906121b8818360208801611c39565b01949350505050565b818103818111156105d9576105d9612005565b6001600160a01b038581168252841660208201526040810183905260806060820181905260009061220790830184611c5d565b9695505050505050565b60006020828403121561222357600080fd5b8151610ed581611c06565b634e487b7160e01b600052603160045260246000fdfea2646970667358221220a57d75bd8077c2a5ae815c58e1c5d4bf462edc26463c0f1b243ea7c213f1d60764736f6c63430008140033",
  "linkReferences": {},
  "deployedLinkReferences": {}
}