{
  "_format": "hh-sol-artifact-1",
  "contractName": "ArcSignPro",
  "sourceName": "contracts/ArcSignPro.sol",
  "abi": [
    {
      "inputs": [
        {
          "internalType": "address",
          "name": "_paymentToken",
          "type": "address"
        },
        {
          "internalType": "address",
          "name": "_treasury",
          "type": "address"
        }
      ],
      "stateMutability": "nonpayable",
      "type": "constructor"
    },
    {
      "inputs": [],
      "name": "ERC721EnumerableForbiddenBatchMint",
      "type": "error"
    },
    {
      "inputs": [
        {
          "internalType": "address",
          "name": "sender",
          "type": "address"
        },
        {
          "internalType": "uint256",
          "name": "tokenId",
          "type": "uint256"
        },
        {
          "internalType": "address",
          "name": "owner",
          "type": "address"
        }
      ],
      "name": "ERC721IncorrectOwner",
      "type": "error"
    },
    {
      "inputs": [
        {
          "internalType": "address",
          "name": "operator",
          "type": "address"
        },
        {
          "internalType": "uint256",
          "name": "tokenId",
          "type": "uint256"
        }
      ],
      "name": "ERC721InsufficientApproval",
      "type": "error"
    },
    {
      "inputs": [
        {
          "internalType": "address",
          "name": "approver",
          "type": "address"
        }
      ],
      "name": "ERC721InvalidApprover",
      "type": "error"
    },
    {
      "inputs": [
        {
          "internalType": "address",
          "name": "operator",
          "type": "address"
        }
      ],
      "name": "ERC721InvalidOperator",
      "type": "error"
    },
    {
      "inputs": [
        {
          "internalType": "address",
          "name": "owner",
          "type": "address"
        }
      ],
      "name": "ERC721InvalidOwner",
      "type": "error"
    },
    {
      "inputs": [
        {
          "internalType": "address",
          "name": "receiver",
          "type": "address"
        }
      ],
      "name": "ERC721InvalidReceiver",
      "type": "error"
    },
    {
      "inputs": [
        {
          "internalType": "address",
          "name": "sender",
          "type": "address"
        }
      ],
      "name": "ERC721InvalidSender",
      "type": "error"
    },
    {
      "inputs": [
        {
          "internalType": "uint256",
          "name": "tokenId",
          "type": "uint256"
        }
      ],
      "name": "ERC721NonexistentToken",
      "type": "error"
    },
    {
      "inputs": [
        {
          "internalType": "address",
          "name": "owner",
          "type": "address"
        },
        {
          "internalType": "uint256",
          "name": "index",
          "type": "uint256"
        }
      ],
      "name": "ERC721OutOfBoundsIndex",
      "type": "error"
    },
    {
      "inputs": [
        {
          "internalType": "address",
          "name": "owner",
          "type": "address"
        }
      ],
      "name": "OwnableInvalidOwner",
      "type": "error"
    },
    {
      "inputs": [
        {
          "internalType": "address",
          "name": "account",
          "type": "address"
        }
      ],
      "name": "OwnableUnauthorizedAccount",
      "type": "error"
    },
    {
      "inputs": [],
      "name": "ReentrancyGuardReentrantCall",
      "type": "error"
    },
    {
      "inputs": [
        {
          "internalType": "address",
          "name": "token",
          "type": "address"
        }
      ],
      "name": "SafeERC20FailedOperation",
      "type": "error"
    },
    {
      "anonymous": false,
      "inputs": [
        {
          "indexed": true,
          "internalType": "address",
          "name": "owner",
          "type": "address"
        },
        {
          "indexed": true,
          "internalType": "address",
          "name": "approved",
          "type": "address"
        },
        {
          "indexed": true,
          "internalType": "uint256",
          "name": "tokenId",
          "type": "uint256"
        }
      ],
      "name": "Approval",
      "type": "event"
    },
    {
      "anonymous": false,
      "inputs": [
        {
          "indexed": true,
          "internalType": "address",
          "name": "owner",
          "type": "address"
        },
        {
          "indexed": true,
          "internalType": "address",
          "name": "operator",
          "type": "address"
        },
        {
          "indexed": false,
          "internalType": "bool",
          "name": "approved",
          "type": "bool"
        }
      ],
      "name": "ApprovalForAll",
      "type": "event"
    },
    {
      "anonymous": false,
      "inputs": [
        {
          "indexed": false,
          "internalType": "string",
          "name": "newBaseURI",
          "type": "string"
        }
      ],
      "name": "BaseURIUpdated",
      "type": "event"
    },
    {
      "anonymous": false,
      "inputs": [
        {
          "indexed": true,
          "internalType": "address",
          "name": "owner",
          "type": "address"
        },
        {
          "indexed": true,
          "internalType": "uint256",
          "name": "tokenId",
          "type": "uint256"
        },
        {
          "indexed": false,
          "internalType": "uint256",
          "name": "expiresAt",
          "type": "uint256"
        }
      ],
      "name": "MembershipMinted",
      "type": "event"
    },
    {
      "anonymous": false,
      "inputs": [
        {
          "indexed": true,
          "internalType": "uint256",
          "name": "tokenId",
          "type": "uint256"
        },
        {
          "indexed": false,
          "internalType": "uint256",
          "name": "newExpiresAt",
          "type": "uint256"
        }
      ],
      "name": "MembershipRenewed",
      "type": "event"
    },
    {
      "anonymous": false,
      "inputs": [
        {
          "indexed": true,
          "internalType": "address",
          "name": "previousOwner",
          "type": "address"
        },
        {
          "indexed": true,
          "internalType": "address",
          "name": "newOwner",
          "type": "address"
        }
      ],
      "name": "OwnershipTransferred",
      "type": "event"
    },
    {
      "anonymous": false,
      "inputs": [
        {
          "indexed": true,
          "internalType": "address",
          "name": "from",
          "type": "address"
        },
        {
          "indexed": true,
          "internalType": "address",
          "name": "to",
          "type": "address"
        },
        {
          "indexed": true,
          "internalType": "uint256",
          "name": "tokenId",
          "type": "uint256"
        }
      ],
      "name": "Transfer",
      "type": "event"
    },
    {
      "anonymous": false,
      "inputs": [
        {
          "indexed": true,
          "internalType": "address",
          "name": "oldTreasury",
          "type": "address"
        },
        {
          "indexed": true,
          "internalType": "address",
          "name": "newTreasury",
          "type": "address"
        }
      ],
      "name": "TreasuryUpdated",
      "type": "event"
    },
    {
      "anonymous": false,
      "inputs": [
        {
          "indexed": true,
          "internalType": "address",
          "name": "token",
          "type": "address"
        },
        {
          "indexed": true,
          "internalType": "address",
          "name": "to",
          "type": "address"
        },
        {
          "indexed": false,
          "internalType": "uint256",
          "name": "amount",
          "type": "uint256"
        }
      ],
      "name": "Withdrawn",
      "type": "event"
    },
    {
      "inputs": [],
      "name": "DURATION",
      "outputs": [
        {
          "internalType": "uint256",
          "name": "",
          "type": "uint256"
        }
      ],
      "stateMutability": "view",
      "type": "function"
    },
    {
      "inputs": [],
      "name": "PRICE",
      "outputs": [
        {
          "internalType": "uint256",
          "name": "",
          "type": "uint256"
        }
      ],
      "stateMutability": "view",
      "type": "function"
    },
    {
      "inputs": [
        {
          "internalType": "address",
          "name": "to",
          "type": "address"
        },
        {
          "internalType": "uint256",
          "name": "tokenId",
          "type": "uint256"
        }
      ],
      "name": "approve",
      "outputs": [],
      "stateMutability": "nonpayable",
      "type": "function"
    },
    {
      "inputs": [
        {
          "internalType": "address",
          "name": "owner",
          "type": "address"
        }
      ],
      "name": "balanceOf",
      "outputs": [
        {
          "internalType": "uint256",
          "name": "",
          "type": "uint256"
        }
      ],
      "stateMutability": "view",
      "type": "function"
    },
    {
      "inputs": [
        {
          "internalType": "uint256",
          "name": "",
          "type": "uint256"
        }
      ],
      "name": "expiresAt",
      "outputs": [
        {
          "internalType": "uint256",
          "name": "",
          "type": "uint256"
        }
      ],
      "stateMutability": "view",
      "type": "function"
    },
    {
      "inputs": [
        {
          "internalType": "uint256",
          "name": "tokenId",
          "type": "uint256"
        }
      ],
      "name": "getApproved",
      "outputs": [
        {
          "internalType": "address",
          "name": "",
          "type": "address"
        }
      ],
      "stateMutability": "view",
      "type": "function"
    },
    {
      "inputs": [
        {
          "internalType": "address",
          "name": "owner",
          "type": "address"
        }
      ],
      "name": "getMemberships",
      "outputs": [
        {
          "internalType": "uint256[]",
          "name": "tokenIds",
          "type": "uint256[]"
        },
        {
          "internalType": "uint256[]",
          "name": "expirations",
          "type": "uint256[]"
        },
        {
          "internalType": "bool[]",
          "name": "valid",
          "type": "bool[]"
        }
      ],
      "stateMutability": "view",
      "type": "function"
    },
    {
      "inputs": [
        {
          "internalType": "address",
          "name": "owner",
          "type": "address"
        },
        {
          "internalType": "address",
          "name": "operator",
          "type": "address"
        }
      ],
      "name": "isApprovedForAll",
      "outputs": [
        {
          "internalType": "bool",
          "name": "",
          "type": "bool"
        }
      ],
      "stateMutability": "view",
      "type": "function"
    },
    {
      "inputs": [
        {
          "internalType": "address",
          "name": "owner",
          "type": "address"
        }
      ],
      "name": "isValidMember",
      "outputs": [
        {
          "internalType": "bool",
          "name": "",
          "type": "bool"
        }
      ],
      "stateMutability": "view",
      "type": "function"
    },
    {
      "inputs": [],
      "name": "mint",
      "outputs": [],
      "stateMutability": "nonpayable",
      "type": "function"
    },
    {
      "inputs": [],
      "name": "name",
      "outputs": [
        {
          "internalType": "string",
          "name": "",
          "type": "string"
        }
      ],
      "stateMutability": "view",
      "type": "function"
    },
    {
      "inputs": [],
      "name": "owner",
      "outputs": [
        {
          "internalType": "address",
          "name": "",
          "type": "address"
        }
      ],
      "stateMutability": "view",
      "type": "function"
    },
    {
      "inputs": [
        {
          "internalType": "uint256",
          "name": "tokenId",
          "type": "uint256"
        }
      ],
      "name": "ownerOf",
      "outputs": [
        {
          "internalType": "address",
          "name": "",
          "type": "address"
        }
      ],
      "stateMutability": "view",
      "type": "function"
    },
    {
      "inputs": [],
      "name": "paymentToken",
      "outputs": [
        {
          "internalType": "contract IERC20",
          "name": "",
          "type": "address"
        }
      ],
      "stateMutability": "view",
      "type": "function"
    },
    {
      "inputs": [
        {
          "internalType": "uint256",
          "name": "tokenId",
          "type": "uint256"
        }
      ],
      "name": "renew",
      "outputs": [],
      "stateMutability": "nonpayable",
      "type": "function"
    },
    {
      "inputs": [],
      "name": "renounceOwnership",
      "outputs": [],
      "stateMutability": "nonpayable",
      "type": "function"
    },
    {
      "inputs": [
        {
          "internalType": "address",
          "name": "from",
          "type": "address"
        },
        {
          "internalType": "address",
          "name": "to",
          "type": "address"
        },
        {
          "internalType": "uint256",
          "name": "tokenId",
          "type": "uint256"
        }
      ],
      "name": "safeTransferFrom",
      "outputs": [],
      "stateMutability": "nonpayable",
      "type": "function"
    },
    {
      "inputs": [
        {
          "internalType": "address",
          "name": "from",
          "type": "address"
        },
        {
          "internalType": "address",
          "name": "to",
          "type": "address"
        },
        {
          "internalType": "uint256",
          "name": "tokenId",
          "type": "uint256"
        },
        {
          "internalType": "bytes",
          "name": "data",
          "type": "bytes"
        }
      ],
      "name": "safeTransferFrom",
      "outputs": [],
      "stateMutability": "nonpayable",
      "type": "function"
    },
    {
      "inputs": [
        {
          "internalType": "address",
          "name": "operator",
          "type": "address"
        },
        {
          "internalType": "bool",
          "name": "approved",
          "type": "bool"
        }
      ],
      "name": "setApprovalForAll",
      "outputs": [],
      "stateMutability": "nonpayable",
      "type": "function"
    },
    {
      "inputs": [
        {
          "internalType": "string",
          "name": "baseURI",
          "type": "string"
        }
      ],
      "name": "setBaseURI",
      "outputs": [],
      "stateMutability": "nonpayable",
      "type": "function"
    },
    {
      "inputs": [
        {
          "internalType": "address",
          "name": "newTreasury",
          "type": "address"
        }
      ],
      "name": "setTreasury",
      "outputs": [],
      "stateMutability": "nonpayable",
      "type": "function"
    },
    {
      "inputs": [
        {
          "internalType": "bytes4",
          "name": "interfaceId",
          "type": "bytes4"
        }
      ],
      "name": "supportsInterface",
      "outputs": [
        {
          "internalType": "bool",
          "name": "",
          "type": "bool"
        }
      ],
      "stateMutability": "view",
      "type": "function"
    },
    {
      "inputs": [],
      "name": "symbol",
      "outputs": [
        {
          "internalType": "string",
          "name": "",
          "type": "string"
        }
      ],
      "stateMutability": "view",
      "type": "function"
    },
    {
      "inputs": [
        {
          "internalType": "uint256",
          "name": "tokenId",
          "type": "uint256"
        }
      ],
      "name": "timeUntilExpiry",
      "outputs": [
        {
          "internalType": "uint256",
          "name": "",
          "type": "uint256"
        }
      ],
      "stateMutability": "view",
      "type": "function"
    },
    {
      "inputs": [
        {
          "internalType": "uint256",
          "name": "index",
          "type": "uint256"
        }
      ],
      "name": "tokenByIndex",
      "outputs": [
        {
          "internalType": "uint256",
          "name": "",
          "type": "uint256"
        }
      ],
      "stateMutability": "view",
      "type": "function"
    },
    {
      "inputs": [
        {
          "internalType": "address",
          "name": "owner",
          "type": "address"
        },
        {
          "internalType": "uint256",
          "name": "index",
          "type": "uint256"
        }
      ],
      "name": "tokenOfOwnerByIndex",
      "outputs": [
        {
          "internalType": "uint256",
          "name": "",
          "type": "uint256"
        }
      ],
      "stateMutability": "view",
      "type": "function"
    },
    {
      "inputs": [
        {
          "internalType": "uint256",
          "name": "tokenId",
          "type": "uint256"
        }
      ],
      "name": "tokenURI",
      "outputs": [
        {
          "internalType": "string",
          "name": "",
          "type": "string"
        }
      ],
      "stateMutability": "view",
      "type": "function"
    },
    {
      "inputs": [],
      "name": "totalSupply",
      "outputs": [
        {
          "internalType": "uint256",
          "name": "",
          "type": "uint256"
        }
      ],
      "stateMutability": "view",
      "type": "function"
    },
    {
      "inputs": [
        {
          "internalType": "address",
          "name": "from",
          "type": "address"
        },
        {
          "internalType": "address",
          "name": "to",
          "type": "address"
        },
        {
          "internalType": "uint256",
          "name": "tokenId",
          "type": "uint256"
        }
      ],
      "name": "transferFrom",
      "outputs": [],
      "stateMutability": "nonpayable",
      "type": "function"
    },
    {
      "inputs": [
        {
          "internalType": "address",
          "name": "newOwner",
          "type": "address"
        }
      ],
      "name": "transferOwnership",
      "outputs": [],
      "stateMutability": "nonpayable",
      "type": "function"
    },
    {
      "inputs": [],
      "name": "treasury",
      "outputs": [
        {
          "internalType": "address",
          "name": "",
          "type": "address"
        }
      ],
      "stateMutability": "view",
      "type": "function"
    },
    {
      "inputs": [
        {
          "internalType": "address",
          "name": "token",
          "type": "address"
        },
        {
          "internalType": "address",
          "name": "to",
          "type": "address"
        },
        {
          "internalType": "uint256",
          "name": "amount",
          "type": "uint256"
        }
      ],
      "name": "withdraw",
      "outputs": [],
      "stateMutability": "nonpayable",
      "type": "function"
    },
    {
      "stateMutability": "payable",
      "type": "receive"
    }
  ],
  "bytecode": "0x60a06040523480156200001157600080fd5b50604051620026a9380380620026a983398101604081905262000034916200021c565b336040518060400160405280600b81526020016a4172635369676e2050726f60a81b8152506040518060400160405280600681526020016541524350524f60d01b8152508160009081620000899190620002f9565b506001620000988282620002f9565b5050506001600160a01b038116620000cb57604051631e4fbdf760e01b8152600060048201526024015b60405180910390fd5b620000d681620001ad565b506001600b556001600160a01b038216620001345760405162461bcd60e51b815260206004820152601560248201527f496e76616c6964207061796d656e7420746f6b656e00000000000000000000006044820152606401620000c2565b6001600160a01b0381166200017f5760405162461bcd60e51b815260206004820152601060248201526f496e76616c696420747265617375727960801b6044820152606401620000c2565b6001600160a01b03918216608052600f80546001600160a01b031916919092161790556001600c55620003c5565b600a80546001600160a01b038381166001600160a01b0319831681179093556040519116919082907f8be0079c531659141344cd1fd0a4f28419497f9722a3daafe3b4186f6b6457e090600090a35050565b80516001600160a01b03811681146200021757600080fd5b919050565b600080604083850312156200023057600080fd5b6200023b83620001ff565b91506200024b60208401620001ff565b90509250929050565b634e487b7160e01b600052604160045260246000fd5b600181811c908216806200027f57607f821691505b602082108103620002a057634e487b7160e01b600052602260045260246000fd5b50919050565b601f821115620002f457600081815260208120601f850160051c81016020861015620002cf5750805b601f850160051c820191505b81811015620002f057828155600101620002db565b5050505b505050565b81516001600160401b0381111562000315576200031562000254565b6200032d816200032684546200026a565b84620002a6565b602080601f8311600181146200036557600084156200034c5750858301515b600019600386901b1c1916600185901b178555620002f0565b600085815260208120601f198616915b82811015620003965788860151825594840194600190910190840162000375565b5085821015620003b55787850151600019600388901b60f8161c191681555b5050505050600190811b01905550565b6080516122ba620003ef600039600081816103c20152818161071d0152610c1c01526122ba6000f3fe6080604052600436106101e75760003560e01c80635baa750911610102578063a22cb46511610095578063d9caed1211610064578063d9caed12146105a9578063e985e9c5146105c9578063f0f44260146105e9578063f2fde38b1461060957600080fd5b8063a22cb46514610529578063b88d4fde14610549578063c87b56dd14610569578063cae2740c1461058957600080fd5b8063715018a6116100d1578063715018a6146104c45780638d859f3e146104d95780638da5cb5b146104f657806395d89b411461051457600080fd5b80635baa75091461044457806361d027b3146104645780636352211e1461048457806370a08231146104a457600080fd5b806320785f9a1161017a5780633013ce29116101495780633013ce29146103b057806342842e0e146103e45780634f6ccce71461040457806355f804b31461042457600080fd5b806320785f9a1461032157806323b872dd146103505780632b01bf51146103705780632f745c591461039057600080fd5b80631249c58b116101b65780631249c58b146102a457806317c95709146102b957806318160ddd146102f45780631be052891461030957600080fd5b806301ffc9a7146101f357806306fdde0314610228578063081812fc1461024a578063095ea7b31461028257600080fd5b366101ee57005b600080fd5b3480156101ff57600080fd5b5061021361020e366004611c5c565b610629565b60405190151581526020015b60405180910390f35b34801561023457600080fd5b5061023d61063a565b60405161021f9190611cc9565b34801561025657600080fd5b5061026a610265366004611cdc565b6106cc565b6040516001600160a01b03909116815260200161021f565b34801561028e57600080fd5b506102a261029d366004611d11565b6106f5565b005b3480156102b057600080fd5b506102a2610704565b3480156102c557600080fd5b506102e66102d4366004611cdc565b600d6020526000908152604090205481565b60405190815260200161021f565b34801561030057600080fd5b506008546102e6565b34801561031557600080fd5b506102e66301e1338081565b34801561032d57600080fd5b5061034161033c366004611d3b565b6107e2565b60405161021f93929190611d91565b34801561035c57600080fd5b506102a261036b366004611dfc565b610981565b34801561037c57600080fd5b5061021361038b366004611d3b565b610a11565b34801561039c57600080fd5b506102e66103ab366004611d11565b610a77565b3480156103bc57600080fd5b5061026a7f000000000000000000000000000000000000000000000000000000000000000081565b3480156103f057600080fd5b506102a26103ff366004611dfc565b610adc565b34801561041057600080fd5b506102e661041f366004611cdc565b610afc565b34801561043057600080fd5b506102a261043f366004611e38565b610b55565b34801561045057600080fd5b506102a261045f366004611cdc565b610ba8565b34801561047057600080fd5b50600f5461026a906001600160a01b031681565b34801561049057600080fd5b5061026a61049f366004611cdc565b610cea565b3480156104b057600080fd5b506102e66104bf366004611d3b565b610cf5565b3480156104d057600080fd5b506102a2610d3d565b3480156104e557600080fd5b506102e66801a055690d9db8000081565b34801561050257600080fd5b50600a546001600160a01b031661026a565b34801561052057600080fd5b5061023d610d4f565b34801561053557600080fd5b506102a2610544366004611eaa565b610d5e565b34801561055557600080fd5b506102a2610564366004611efc565b610d69565b34801561057557600080fd5b5061023d610584366004611cdc565b610d81565b34801561059557600080fd5b506102e66105a4366004611cdc565b610de9565b3480156105b557600080fd5b506102a26105c4366004611dfc565b610e6d565b3480156105d557600080fd5b506102136105e4366004611fd8565b610fd2565b3480156105f557600080fd5b506102a2610604366004611d3b565b611000565b34801561061557600080fd5b506102a2610624366004611d3b565b6110a3565b6000610634826110de565b92915050565b6060600080546106499061200b565b80601f01602080910402602001604051908101604052809291908181526020018280546106759061200b565b80156106c25780601f10610697576101008083540402835291602001916106c2565b820191906000526020600020905b8154815290600101906020018083116106a557829003601f168201915b5050505050905090565b60006106d782611103565b506000828152600460205260409020546001600160a01b0316610634565b61070082823361113c565b5050565b61070c611149565b600f54610751906001600160a01b037f00000000000000000000000000000000000000000000000000000000000000008116913391166801a055690d9db80000611173565b600c8054600091826107628361205b565b91905055905061077233826111da565b60006107826301e1338042612074565b6000838152600d60205260409081902082905551909150829033907ff2865733c560f01a6467cfb44c0992eee40fbd2efa39b93d19e5eff39ae14498906107cc9085815260200190565b60405180910390a350506107e06001600b55565b565b606080606060006107f285610cf5565b90508067ffffffffffffffff81111561080d5761080d611ee6565b604051908082528060200260200182016040528015610836578160200160208202803683370190505b5093508067ffffffffffffffff81111561085257610852611ee6565b60405190808252806020026020018201604052801561087b578160200160208202803683370190505b5092508067ffffffffffffffff81111561089757610897611ee6565b6040519080825280602002602001820160405280156108c0578160200160208202803683370190505b50915060005b818110156109785760006108da8783610a77565b9050808683815181106108ef576108ef612087565b602002602001018181525050600d60008281526020019081526020016000205485838151811061092157610921612087565b60200260200101818152505042600d6000838152602001908152602001600020541184838151811061095557610955612087565b9115156020928302919091019091015250806109708161205b565b9150506108c6565b50509193909250565b6001600160a01b0382166109b057604051633250574960e11b8152600060048201526024015b60405180910390fd5b60006109bd8383336111f4565b9050836001600160a01b0316816001600160a01b031614610a0b576040516364283d7b60e01b81526001600160a01b03808616600483015260248201849052821660448201526064016109a7565b50505050565b600080610a1d83610cf5565b905060005b81811015610a6d576000610a368583610a77565b6000818152600d6020526040902054909150421015610a5a57506001949350505050565b5080610a658161205b565b915050610a22565b5060009392505050565b6000610a8283610cf5565b8210610ab35760405163295f44f760e21b81526001600160a01b0384166004820152602481018390526044016109a7565b506001600160a01b03919091166000908152600660209081526040808320938352929052205490565b610af783838360405180602001604052806000815250610d69565b505050565b6000610b0760085490565b8210610b305760405163295f44f760e21b815260006004820152602481018390526044016109a7565b60088281548110610b4357610b43612087565b90600052602060002001549050919050565b610b5d611209565b600e610b6a8284836120e3565b507f6741b2fc379fad678116fe3d4d4b9a1a184ab53ba36b86ad0fa66340b1ab41ad8282604051610b9c9291906121a3565b60405180910390a15050565b610bb0611149565b6000818152600260205260409020546001600160a01b0316610c0b5760405162461bcd60e51b8152602060048201526014602482015273151bdad95b88191bd95cc81b9bdd08195e1a5cdd60621b60448201526064016109a7565b600f54610c50906001600160a01b037f00000000000000000000000000000000000000000000000000000000000000008116913391166801a055690d9db80000611173565b6000818152600d60205260408120549042821015610c7d57610c766301e1338042612074565b9050610c8e565b610c8b6301e1338083612074565b90505b6000838152600d6020526040908190208290555183907ff31970c2896632ef001d5a52920e1d099b23a57ee9a2dc661703cf93946ae3ba90610cd39084815260200190565b60405180910390a25050610ce76001600b55565b50565b600061063482611103565b60006001600160a01b038216610d21576040516322718ad960e21b8152600060048201526024016109a7565b506001600160a01b031660009081526003602052604090205490565b610d45611209565b6107e06000611236565b6060600180546106499061200b565b610700338383611288565b610d74848484610981565b610a0b338585858561131f565b6060610d8c82611103565b506000610d9761144a565b90506000815111610db75760405180602001604052806000815250610de2565b80610dc184611459565b604051602001610dd29291906121d2565b6040516020818303038152906040525b9392505050565b6000818152600260205260408120546001600160a01b0316610e445760405162461bcd60e51b8152602060048201526014602482015273151bdad95b88191bd95cc81b9bdd08195e1a5cdd60621b60448201526064016109a7565b6000828152600d6020526040902054428111610e635750600092915050565b610de24282612201565b610e75611209565b6001600160a01b038216610ebf5760405162461bcd60e51b8152602060048201526011602482015270125b9d985b1a59081c9958da5c1a595b9d607a1b60448201526064016109a7565b6001600160a01b038316610f6c576000826001600160a01b03168260405160006040518083038185875af1925050503d8060008114610f1a576040519150601f19603f3d011682016040523d82523d6000602084013e610f1f565b606091505b5050905080610f665760405162461bcd60e51b8152602060048201526013602482015272109390881d1c985b9cd9995c8819985a5b1959606a1b60448201526064016109a7565b50610f80565b610f806001600160a01b03841683836114ec565b816001600160a01b0316836001600160a01b03167fd1c19fbcd4551a5edfb66d43d2e337c04837afda3482b42bdf569a8fccdae5fb83604051610fc591815260200190565b60405180910390a3505050565b6001600160a01b03918216600090815260056020908152604080832093909416825291909152205460ff1690565b611008611209565b6001600160a01b0381166110515760405162461bcd60e51b815260206004820152601060248201526f496e76616c696420747265617375727960801b60448201526064016109a7565b600f80546001600160a01b038381166001600160a01b0319831681179093556040519116919082907f4ab5be82436d353e61ca18726e984e561f5c1cc7c6d38b29d2553c790434705a90600090a35050565b6110ab611209565b6001600160a01b0381166110d557604051631e4fbdf760e01b8152600060048201526024016109a7565b610ce781611236565b60006001600160e01b0319821663780e9d6360e01b148061063457506106348261151d565b6000818152600260205260408120546001600160a01b03168061063457604051637e27328960e01b8152600481018490526024016109a7565b610af7838383600161156d565b6002600b540361116c57604051633ee5aeb560e01b815260040160405180910390fd5b6002600b55565b6040516001600160a01b038481166024830152838116604483015260648201839052610a0b9186918216906323b872dd906084015b604051602081830303815290604052915060e01b6020820180516001600160e01b038381831617835250505050611673565b6107008282604051806020016040528060008152506116e4565b60006112018484846116fc565b949350505050565b600a546001600160a01b031633146107e05760405163118cdaa760e01b81523360048201526024016109a7565b600a80546001600160a01b038381166001600160a01b0319831681179093556040519116919082907f8be0079c531659141344cd1fd0a4f28419497f9722a3daafe3b4186f6b6457e090600090a35050565b6001600160a01b0382166112ba57604051630b61174360e31b81526001600160a01b03831660048201526024016109a7565b6001600160a01b03838116600081815260056020908152604080832094871680845294825291829020805460ff191686151590811790915591519182527f17307eab39ab6107e8899845ad3d59bd9653f200f220920489ca2b5937696c319101610fc5565b6001600160a01b0383163b1561144357604051630a85bd0160e11b81526001600160a01b0384169063150b7a0290611361908890889087908790600401612214565b6020604051808303816000875af192505050801561139c575060408051601f3d908101601f1916820190925261139991810190612251565b60015b611405573d8080156113ca576040519150601f19603f3d011682016040523d82523d6000602084013e6113cf565b606091505b5080516000036113fd57604051633250574960e11b81526001600160a01b03851660048201526024016109a7565b805160208201fd5b6001600160e01b03198116630a85bd0160e11b1461144157604051633250574960e11b81526001600160a01b03851660048201526024016109a7565b505b5050505050565b6060600e80546106499061200b565b60606000611466836117c9565b600101905060008167ffffffffffffffff81111561148657611486611ee6565b6040519080825280601f01601f1916602001820160405280156114b0576020820181803683370190505b5090508181016020015b600019016f181899199a1a9b1b9c1cb0b131b232b360811b600a86061a8153600a85049450846114ba57509392505050565b6040516001600160a01b03838116602483015260448201839052610af791859182169063a9059cbb906064016111a8565b60006001600160e01b031982166380ac58cd60e01b148061154e57506001600160e01b03198216635b5e139f60e01b145b8061063457506301ffc9a760e01b6001600160e01b0319831614610634565b808061158157506001600160a01b03821615155b1561164357600061159184611103565b90506001600160a01b038316158015906115bd5750826001600160a01b0316816001600160a01b031614155b80156115d057506115ce8184610fd2565b155b156115f95760405163a9fbf51f60e01b81526001600160a01b03841660048201526024016109a7565b81156116415783856001600160a01b0316826001600160a01b03167f8c5be1e5ebec7d5bd14f71427d1e84f3dd0314c0f7b2291e5b200ac8c7c3b92560405160405180910390a45b505b5050600090815260046020526040902080546001600160a01b0319166001600160a01b0392909216919091179055565b600080602060008451602086016000885af180611696576040513d6000823e3d81fd5b50506000513d915081156116ae5780600114156116bb565b6001600160a01b0384163b155b15610a0b57604051635274afe760e01b81526001600160a01b03851660048201526024016109a7565b6116ee83836118a1565b610af733600085858561131f565b60008061170a858585611906565b90506001600160a01b0381166117675761176284600880546000838152600960205260408120829055600182018355919091527ff3f7a9fe364faab93b216da50a3214154f22a0a2b415b23a84c8169e8b636ee30155565b61178a565b846001600160a01b0316816001600160a01b03161461178a5761178a81856119ff565b6001600160a01b0385166117a6576117a184611a80565b611201565b846001600160a01b0316816001600160a01b031614611201576112018585611b2f565b60008072184f03e93ff9f4daa797ed6e38ed64bf6a1f0160401b83106118085772184f03e93ff9f4daa797ed6e38ed64bf6a1f0160401b830492506040015b6d04ee2d6d415b85acef81000000008310611834576d04ee2d6d415b85acef8100000000830492506020015b662386f26fc10000831061185257662386f26fc10000830492506010015b6305f5e100831061186a576305f5e100830492506008015b612710831061187e57612710830492506004015b60648310611890576064830492506002015b600a83106106345760010192915050565b6001600160a01b0382166118cb57604051633250574960e11b8152600060048201526024016109a7565b60006118d9838360006111f4565b90506001600160a01b03811615610af7576040516339e3563760e11b8152600060048201526024016109a7565b6000828152600260205260408120546001600160a01b039081169083161561193357611933818486611b7f565b6001600160a01b038116156119715761195060008560008061156d565b6001600160a01b038116600090815260036020526040902080546000190190555b6001600160a01b038516156119a0576001600160a01b0385166000908152600360205260409020805460010190555b60008481526002602052604080822080546001600160a01b0319166001600160a01b0389811691821790925591518793918516917fddf252ad1be2c89b69c2b068fc378daa952ba7f163c4a11628f55a4df523b3ef91a4949350505050565b6000611a0a83610cf5565b6000838152600760209081526040808320546001600160a01b0388168452600690925290912091925090818314611a6157600083815260208281526040808320548584528184208190558352600790915290208290555b6000938452600760209081526040808620869055938552525081205550565b600854600090611a9290600190612201565b60008381526009602052604081205460088054939450909284908110611aba57611aba612087565b906000526020600020015490508060088381548110611adb57611adb612087565b6000918252602080832090910192909255828152600990915260408082208490558582528120556008805480611b1357611b1361226e565b6001900381819060005260206000200160009055905550505050565b60006001611b3c84610cf5565b611b469190612201565b6001600160a01b039093166000908152600660209081526040808320868452825280832085905593825260079052919091209190915550565b611b8a838383611be3565b610af7576001600160a01b038316611bb857604051637e27328960e01b8152600481018290526024016109a7565b60405163177e802f60e01b81526001600160a01b0383166004820152602481018290526044016109a7565b60006001600160a01b038316158015906112015750826001600160a01b0316846001600160a01b03161480611c1d5750611c1d8484610fd2565b806112015750506000908152600460205260409020546001600160a01b03908116911614919050565b6001600160e01b031981168114610ce757600080fd5b600060208284031215611c6e57600080fd5b8135610de281611c46565b60005b83811015611c94578181015183820152602001611c7c565b50506000910152565b60008151808452611cb5816020860160208601611c79565b601f01601f19169290920160200192915050565b602081526000610de26020830184611c9d565b600060208284031215611cee57600080fd5b5035919050565b80356001600160a01b0381168114611d0c57600080fd5b919050565b60008060408385031215611d2457600080fd5b611d2d83611cf5565b946020939093013593505050565b600060208284031215611d4d57600080fd5b610de282611cf5565b600081518084526020808501945080840160005b83811015611d8657815187529582019590820190600101611d6a565b509495945050505050565b606081526000611da46060830186611d56565b602083820381850152611db78287611d56565b8481036040860152855180825282870193509082019060005b81811015611dee578451151583529383019391830191600101611dd0565b509098975050505050505050565b600080600060608486031215611e1157600080fd5b611e1a84611cf5565b9250611e2860208501611cf5565b9150604084013590509250925092565b60008060208385031215611e4b57600080fd5b823567ffffffffffffffff80821115611e6357600080fd5b818501915085601f830112611e7757600080fd5b813581811115611e8657600080fd5b866020828501011115611e9857600080fd5b60209290920196919550909350505050565b60008060408385031215611ebd57600080fd5b611ec683611cf5565b915060208301358015158114611edb57600080fd5b809150509250929050565b634e487b7160e01b600052604160045260246000fd5b60008060008060808587031215611f1257600080fd5b611f1b85611cf5565b9350611f2960208601611cf5565b925060408501359150606085013567ffffffffffffffff80821115611f4d57600080fd5b818701915087601f830112611f6157600080fd5b813581811115611f7357611f73611ee6565b604051601f8201601f19908116603f01168101908382118183101715611f9b57611f9b611ee6565b816040528281528a6020848701011115611fb457600080fd5b82602086016020830137600060208483010152809550505050505092959194509250565b60008060408385031215611feb57600080fd5b611ff483611cf5565b915061200260208401611cf5565b90509250929050565b600181811c9082168061201f57607f821691505b60208210810361203f57634e487b7160e01b600052602260045260246000fd5b50919050565b634e487b7160e01b600052601160045260246000fd5b60006001820161206d5761206d612045565b5060010190565b8082018082111561063457610634612045565b634e487b7160e01b600052603260045260246000fd5b601f821115610af757600081815260208120601f850160051c810160208610156120c45750805b601f850160051c820191505b81811015611441578281556001016120d0565b67ffffffffffffffff8311156120fb576120fb611ee6565b61210f83612109835461200b565b8361209d565b6000601f841160018114612143576000851561212b5750838201355b600019600387901b1c1916600186901b178355611443565b600083815260209020601f19861690835b828110156121745786850135825560209485019460019092019101612154565b50868210156121915760001960f88860031b161c19848701351681555b505060018560011b0183555050505050565b60208152816020820152818360408301376000818301604090810191909152601f909201601f19160101919050565b600083516121e4818460208801611c79565b8351908301906121f8818360208801611c79565b01949350505050565b8181038181111561063457610634612045565b6001600160a01b038581168252841660208201526040810183905260806060820181905260009061224790830184611c9d565b9695505050505050565b60006020828403121561226357600080fd5b8151610de281611c46565b634e487b7160e01b600052603160045260246000fdfea26469706673582212208a24b95f24ea57c83df9f45c2e26f43369093691b88f504d291793a35a441bbe64736f6c63430008140033",
  "linkReferences": {},
  "deployedLinkReferences": {}
}