{
  "_format": "hh-sol-artifact-1",
  "contractName": "ArcSignPro",
  "sourceName": "contracts/ArcSignPro.sol",
  "abi": [
    {
      "inputs": [
        {
          "internalType": "address",
          "name": "_paymentToken",
          "type": "address"
        },
        {
          "internalType": "address",
          "name": "_treasury",
          "type": "address"
        }
      ],
      "stateMutability": "nonpayable",
      "type": "constructor"
    },
    {
      "inputs": [],
      "name": "ERC721EnumerableForbiddenBatchMint",
      "type": "error"
    },
    {
      "inputs": [
        {
          "internalType": "address",
          "name": "sender",
          "type": "address"
        },
        {
          "internalType": "uint256",
          "name": "tokenId",
          "type": "uint256"
        },
        {
          "internalType": "address",
          "name": "owner",
          "type": "address"
        }
      ],
      "name": "ERC721IncorrectOwner",
      "type": "error"
    },
    {
      "inputs": [
        {
          "internalType": "address",
          "name": "operator",
          "type": "address"
        },
        {
          "internalType": "uint256",
          "name": "tokenId",
          "type": "uint256"
        }
      ],
      "name": "ERC721InsufficientApproval",
      "type": "error"
    },
    {
      "inputs": [
        {
          "internalType": "address",
          "name": "approver",
          "type": "address"
        }
      ],
      "name": "ERC721InvalidApprover",
      "type": "error"
    },
    {
      "inputs": [
        {
          "internalType": "address",
          "name": "operator",
          "type": "address"
        }
      ],
      "name": "ERC721InvalidOperator",
      "type": "error"
    },
    {
      "inputs": [
        {
          "internalType": "address",
          "name": "owner",
          "type": "address"
        }
      ],
      "name": "ERC721InvalidOwner",
      "type": "error"
    },
    {
      "inputs": [
        {
          "internalType": "address",
          "name": "receiver",
          "type": "address"
        }
      ],
      "name": "ERC721InvalidReceiver",
      "type": "error"
    },
    {
      "inputs": [
        {
          "internalType": "address",
          "name": "sender",
          "type": "address"
        }
      ],
      "name": "ERC721InvalidSender",
      "type": "error"
    },
    {
      "inputs": [
        {
          "internalType": "uint256",
          "name": "tokenId",
          "type": "uint256"
        }
      ],
      "name": "ERC721NonexistentToken",
      "type": "error"
    },
    {
      "inputs": [
        {
          "internalType": "address",
          "name": "owner",
          "type": "address"
        },
        {
          "internalType": "uint256",
          "name": "index",
          "type": "uint256"
        }
      ],
      "name": "ERC721OutOfBoundsIndex",
      "type": "error"
    },
    {
      "inputs": [
        {
          "internalType": "address",
          "name": "owner",
          "type": "address"
        }
      ],
      "name": "OwnableInvalidOwner",
      "type": "error"
    },
    {
      "inputs": [
        {
          "internalType": "address",
          "name": "account",
          "type": "address"
        }
      ],
      "name": "OwnableUnauthorizedAccount",
      "type": "error"
    },
    {
      "inputs": [],
      "name": "ReentrancyGuardReentrantCall",
      "type": "error"
    },
    {
      "inputs": [
        {
          "internalType": "address",
          "name": "token",
          "type": "address"
        }
      ],
      "name": "SafeERC20FailedOperation",
      "type": "error"
    },
    {
      "anonymous": false,
      "inputs": [
        {
          "indexed": true,
          "internalType": "address",
          "name": "owner",
          "type": "address"
        },
        {
          "indexed": true,
          "internalType": "address",
          "name": "approved",
          "type": "address"
        },
        {
          "indexed": true,
          "internalType": "uint256",
          "name": "tokenId",
          "type": "uint256"
        }
      ],
      "name": "Approval",
      "type": "event"
    },
    {
      "anonymous": false,
      "inputs": [
        {
          "indexed": true,
          "internalType": "address",
          "name": "owner",
          "type": "address"
        },
        {
          "indexed": true,
          "internalType": "address",
          "name": "operator",
          "type": "address"
        },
        {
          "indexed": false,
          "internalType": "bool",
          "name": "approved",
          "type": "bool"
        }
      ],
      "name": "ApprovalForAll",
      "type": "event"
    },
    {
      "anonymous": false,
      "inputs": [
        {
          "indexed": false,
          "internalType": "string",
          "name": "newBaseURI",
          "type": "string"
        }
      ],
      "name": "BaseURIUpdated",
      "type": "event"
    },
    {
      "anonymous": false,
      "inputs": [
        {
          "indexed": true,
          "internalType": "address",
          "name": "owner",
          "type": "address"
        },
        {
          "indexed": true,
          "internalType": "uint256",
          "name": "tokenId",
          "type": "uint256"
        },
        {
          "indexed": false,
          "internalType": "uint256",
          "name": "expiresAt",
          "type": "uint256"
        }
      ],
      "name": "MembershipMinted",
      "type": "event"
    },
    {
      "anonymous": false,
      "inputs": [
        {
          "indexed": true,
          "internalType": "uint256",
          "name": "tokenId",
          "type": "uint256"
        },
        {
          "indexed": false,
          "internalType": "uint256",
          "name": "newExpiresAt",
          "type": "uint256"
        }
      ],
      "name": "MembershipRenewed",
      "type": "event"
    },
    {
      "anonymous": false,
      "inputs": [
        {
          "indexed": true,
          "internalType": "address",
          "name": "previousOwner",
          "type": "address"
        },
        {
          "indexed": true,
          "internalType": "address",
          "name": "newOwner",
          "type": "address"
        }
      ],
      "name": "OwnershipTransferred",
      "type": "event"
    },
    {
      "anonymous": false,
      "inputs": [
        {
          "indexed": true,
          "internalType": "address",
          "name": "from",
          "type": "address"
        },
        {
          "indexed": true,
          "internalType": "address",
          "name": "to",
          "type": "address"
        },
        {
          "indexed": true,
          "internalType": "uint256",
          "name": "tokenId",
          "type": "uint256"
        }
      ],
      "name": "Transfer",
      "type": "event"
    },
    {
      "anonymous": false,
      "inputs": [
        {
          "indexed": true,
          "internalType": "address",
          "name": "oldTreasury",
          "type": "address"
        },
        {
          "indexed": true,
          "internalType": "address",
          "name": "newTreasury",
          "type": "address"
        }
      ],
      "name": "TreasuryUpdated",
      "type": "event"
    },
    {
      "anonymous": false,
      "inputs": [
        {
          "indexed": true,
          "internalType": "address",
          "name": "token",
          "type": "address"
        },
        {
          "indexed": true,
          "internalType": "address",
          "name": "to",
          "type": "address"
        },
        {
          "indexed": false,
          "internalType": "uint256",
          "name": "amount",
          "type": "uint256"
        }
      ],
      "name": "Withdrawn",
      "type": "event"
    },
    {
      "inputs": [],
      "name": "DURATION",
      "outputs": [
        {
          "internalType": "uint256",
          "name": "",
          "type": "uint256"
        }
      ],
      "stateMutability": "view",
      "type": "function"
    },
    {
      "inputs": [],
      "name": "PRICE",
      "outputs": [
        {
          "internalType": "uint256",
          "name": "",
          "type": "uint256"
        }
      ],
      "stateMutability": "view",
      "type": "function"
    },
    {
      "inputs": [
        {
          "internalType": "address",
          "name": "to",
          "type": "address"
        },
        {
          "internalType": "uint256",
          "name": "tokenId",
          "type": "uint256"
        }
      ],
      "name": "approve",
      "outputs": [],
      "stateMutability": "nonpayable",
      "type": "function"
    },
    {
      "inputs": [
        {
          "internalType": "address",
          "name": "owner",
          "type": "address"
        }
      ],
      "name": "balanceOf",
      "outputs": [
        {
          "internalType": "uint256",
          "name": "",
          "type": "uint256"
        }
      ],
      "stateMutability": "view",
      "type": "function"
    },
    {
      "inputs": [
        {
          "internalType": "uint256",
          "name": "",
          "type": "uint256"
        }
      ],
      "name": "expiresAt",
      "outputs": [
        {
          "internalType": "uint256",
          "name": "",
          "type": "uint256"
        }
      ],
      "stateMutability": "view",
      "type": "function"
    },
    {
      "inputs": [
        {
          "internalType": "uint256",
          "name": "tokenId",
          "type": "uint256"
        }
      ],
      "name": "getApproved",
      "outputs": [
        {
          "internalType": "address",
          "name": "",
          "type": "address"
        }
      ],
      "stateMutability": "view",
      "type": "function"
    },
    {
      "inputs": [
        {
          "internalType": "address",
          "name": "owner",
          "type": "address"
        }
      ],
      "name": "getMemberships",
      "outputs": [
        {
          "internalType": "uint256[]",
          "name": "tokenIds",
          "type": "uint256[]"
        },
        {
          "internalType": "uint256[]",
          "name": "expirations",
          "type": "uint256[]"
        },
        {
          "internalType": "bool[]",
          "name": "valid",
          "type": "bool[]"
        }
      ],
      "stateMutability": "view",
      "type": "function"
    },
    {
      "inputs": [
        {
          "internalType": "address",
          "name": "owner",
          "type": "address"
        },
        {
          "internalType": "address",
          "name": "operator",
          "type": "address"
        }
      ],
      "name": "isApprovedForAll",
      "outputs": [
        {
          "internalType": "bool",
          "name": "",
          "type": "bool"
        }
      ],
      "stateMutability": "view",
      "type": "function"
    },
    {
      "inputs": [
        {
          "internalType": "address",
          "name": "owner",
          "type": "address"
        }
      ],
      "name": "isValidMember",
      "outputs": [
        {
          "internalType": "bool",
          "name": "",
          "type": "bool"
        }
      ],
      "stateMutability": "view",
      "type": "function"
    },
    {
      "inputs": [],
      "name": "mint",
      "outputs": [],
      "stateMutability": "nonpayable",
      "type": "function"
    },
    {
      "inputs": [],
      "name": "name",
      "outputs": [
        {
          "internalType": "string",
          "name": "",
          "type": "string"
        }
      ],
      "stateMutability": "view",
      "type": "function"
    },
    {
      "inputs": [],
      "name": "owner",
      "outputs": [
        {
          "internalType": "address",
          "name": "",
          "type": "address"
        }
      ],
      "stateMutability": "view",
      "type": "function"
    },
    {
      "inputs": [
        {
          "internalType": "uint256",
          "name": "tokenId",
          "type": "uint256"
        }
      ],
      "name": "ownerOf",
      "outputs": [
        {
          "internalType": "address",
          "name": "",
          "type": "address"
        }
      ],
      "stateMutability": "view",
      "type": "function"
    },
    {
      "inputs": [],
      "name": "paymentToken",
      "outputs": [
        {
          "internalType": "contract IERC20",
          "name": "",
          "type": "address"
        }
      ],
      "stateMutability": "view",
      "type": "function"
    },
    {
      "inputs": [
        {
          "internalType": "uint256",
          "name": "tokenId",
          "type": "uint256"
        }
      ],
      "name": "renew",
      "outputs": [],
      "stateMutability": "nonpayable",
      "type": "function"
    },
    {
      "inputs": [],
      "name": "renounceOwnership",
      "outputs": [],
      "stateMutability": "nonpayable",
      "type": "function"
    },
    {
      "inputs": [
        {
          "internalType": "address",
          "name": "from",
          "type": "address"
        },
        {
          "internalType": "address",
          "name": "to",
          "type": "address"
        },
        {
          "internalType": "uint256",
          "name": "tokenId",
          "type": "uint256"
        }
      ],
      "name": "safeTransferFrom",
      "outputs": [],
      "stateMutability": "nonpayable",
      "type": "function"
    },
    {
      "inputs": [
        {
          "internalType": "address",
          "name": "from",
          "type": "address"
        },
        {
          "internalType": "address",
          "name": "to",
          "type": "address"
        },
        {
          "internalType": "uint256",
          "name": "tokenId",
          "type": "uint256"
        },
        {
          "internalType": "bytes",
          "name": "data",
          "type": "bytes"
        }
      ],
      "name": "safeTransferFrom",
      "outputs": [],
      "stateMutability": "nonpayable",
      "type": "function"
    },
    {
      "inputs": [
        {
          "internalType": "address",
          "name": "operator",
          "type": "address"
        },
        {
          "internalType": "bool",
          "name": "approved",
          "type": "bool"
        }
      ],
      "name": "setApprovalForAll",
      "outputs": [],
      "stateMutability": "nonpayable",
      "type": "function"
    },
    {
      "inputs": [
        {
          "internalType": "string",
          "name": "baseURI",
          "type": "string"
        }
      ],
      "name": "setBaseURI",
      "outputs": [],
      "stateMutability": "nonpayable",
      "type": "function"
    },
    {
      "inputs": [
        {
          "internalType": "address",
          "name": "newTreasury",
          "type": "address"
        }
      ],
      "name": "setTreasury",
      "outputs": [],
      "stateMutability": "nonpayable",
      "type": "function"
    },
    {
      "inputs": [
        {
          "internalType": "bytes4",
          "name": "interfaceId",
          "type": "bytes4"
        }
      ],
      "name": "supportsInterface",
      "outputs": [
        {
          "internalType": "bool",
          "name": "",
          "type": "bool"
        }
      ],
      "stateMutability": "view",
      "type": "function"
    },
    {
      "inputs": [],
      "name": "symbol",
      "outputs": [
        {
          "internalType": "string",
          "name": "",
          "type": "string"
        }
      ],
      "stateMutability": "view",
      "type": "function"
    },
    {
      "inputs": [
        {
          "internalType": "uint256",
          "name": "tokenId",
          "type": "uint256"
        }
      ],
      "name": "timeUntilExpiry",
      "outputs": [
        {
          "internalType": "uint256",
          "name": "",
          "type": "uint256"
        }
      ],
      "stateMutability": "view",
      "type": "function"
    },
    {
      "inputs": [
        {
          "internalType": "uint256",
          "name": "index",
          "type": "uint256"
        }
      ],
      "name": "tokenByIndex",
      "outputs": [
        {
          "internalType": "uint256",
          "name": "",
          "type": "uint256"
        }
      ],
      "stateMutability": "view",
      "type": "function"
    },
    {
      "inputs": [
        {
          "internalType": "address",
          "name": "owner",
          "type": "address"
        },
        {
          "internalType": "uint256",
          "name": "index",
          "type": "uint256"
        }
      ],
      "name": "tokenOfOwnerByIndex",
      "outputs": [
        {
          "internalType": "uint256",
          "name": "",
          "type": "uint256"
        }
      ],
      "stateMutability": "view",
      "type": "function"
    },
    {
      "inputs": [
        {
          "internalType": "uint256",
          "name": "tokenId",
          "type": "uint256"
        }
      ],
      "name": "tokenURI",
      "outputs": [
        {
          "internalType": "string",
          "name": "",
          "type": "string"
        }
      ],
      "stateMutability": "view",
      "type": "function"
    },
    {
      "inputs": [],
      "name": "totalSupply",
      "outputs": [
        {
          "internalType": "uint256",
          "name": "",
          "type": "uint256"
        }
      ],
      "stateMutability": "view",
      "type": "function"
    },
    {
      "inputs": [
        {
          "internalType": "address",
          "name": "from",
          "type": "address"
        },
        {
          "internalType": "address",
          "name": "to",
          "type": "address"
        },
        {
          "internalType": "uint256",
          "name": "tokenId",
          "type": "uint256"
        }
      ],
      "name": "transferFrom",
      "outputs": [],
      "stateMutability": "nonpayable",
      "type": "function"
    },
    {
      "inputs": [
        {
          "internalType": "address",
          "name": "newOwner",
          "type": "address"
        }
      ],
      "name": "transferOwnership",
      "outputs": [],
      "stateMutability": "nonpayable",
      "type": "function"
    },
    {
      "inputs": [],
      "name": "treasury",
      "outputs": [
        {
          "internalType": "address",
          "name": "",
          "type": "address"
        }
      ],
      "stateMutability": "view",
      "type": "function"
    },
    {
      "inputs": [
        {
          "internalType": "address",
          "name": "token",
          "type": "address"
        },
        {
          "internalType": "address",
          "name": "to",
          "type": "address"
        },
        {
          "internalType": "uint256",
          "name": "amount",
          "type": "uint256"
        }
      ],
      "name": "withdraw",
      "outputs": [],
      "stateMutability": "nonpayable",
      "type": "function"
    },
    {
      "stateMutability": "payable",
      "type": "receive"
    }
  ],
  "bytecode": "0x60a06040523480156200001157600080fd5b50604051620026a6380380620026a683398101604081905262000034916200021c565b336040518060400160405280600b81526020016a4172635369676e2050726f60a81b8152506040518060400160405280600681526020016541524350524f60d01b8152508160009081620000899190620002f9565b506001620000988282620002f9565b5050506001600160a01b038116620000cb57604051631e4fbdf760e01b8152600060048201526024015b60405180910390fd5b620000d681620001ad565b506001600b556001600160a01b038216620001345760405162461bcd60e51b815260206004820152601560248201527f496e76616c6964207061796d656e7420746f6b656e00000000000000000000006044820152606401620000c2565b6001600160a01b0381166200017f5760405162461bcd60e51b815260206004820152601060248201526f496e76616c696420747265617375727960801b6044820152606401620000c2565b6001600160a01b03918216608052600f80546001600160a01b031916919092161790556001600c55620003c5565b600a80546001600160a01b038381166001600160a01b0319831681179093556040519116919082907f8be0079c531659141344cd1fd0a4f28419497f9722a3daafe3b4186f6b6457e090600090a35050565b80516001600160a01b03811681146200021757600080fd5b919050565b600080604083850312156200023057600080fd5b6200023b83620001ff565b91506200024b60208401620001ff565b90509250929050565b634e487b7160e01b600052604160045260246000fd5b600181811c908216806200027f57607f821691505b602082108103620002a057634e487b7160e01b600052602260045260246000fd5b50919050565b601f821115620002f457600081815260208120601f850160051c81016020861015620002cf5750805b601f850160051c820191505b81811015620002f057828155600101620002db565b5050505b505050565b81516001600160401b0381111562000315576200031562000254565b6200032d816200032684546200026a565b84620002a6565b602080601f8311600181146200036557600084156200034c5750858301515b600019600386901b1c1916600185901b178555620002f0565b600085815260208120601f198616915b82811015620003965788860151825594840194600190910190840162000375565b5085821015620003b55787850151600019600388901b60f8161c191681555b5050505050600190811b01905550565b6080516122b7620003ef600039600081816103c20152818161071c0152610c1a01526122b76000f3fe6080604052600436106101e75760003560e01c80635baa750911610102578063a22cb46511610095578063d9caed1211610064578063d9caed12146105a8578063e985e9c5146105c8578063f0f44260146105e8578063f2fde38b1461060857600080fd5b8063a22cb46514610528578063b88d4fde14610548578063c87b56dd14610568578063cae2740c1461058857600080fd5b8063715018a6116100d1578063715018a6146104c45780638d859f3e146104d95780638da5cb5b146104f557806395d89b411461051357600080fd5b80635baa75091461044457806361d027b3146104645780636352211e1461048457806370a08231146104a457600080fd5b806320785f9a1161017a5780633013ce29116101495780633013ce29146103b057806342842e0e146103e45780634f6ccce71461040457806355f804b31461042457600080fd5b806320785f9a1461032157806323b872dd146103505780632b01bf51146103705780632f745c591461039057600080fd5b80631249c58b116101b65780631249c58b146102a457806317c95709146102b957806318160ddd146102f45780631be052891461030957600080fd5b806301ffc9a7146101f357806306fdde0314610228578063081812fc1461024a578063095ea7b31461028257600080fd5b366101ee57005b600080fd5b3480156101ff57600080fd5b5061021361020e366004611c59565b610628565b60405190151581526020015b60405180910390f35b34801561023457600080fd5b5061023d610639565b60405161021f9190611cc6565b34801561025657600080fd5b5061026a610265366004611cd9565b6106cb565b6040516001600160a01b03909116815260200161021f565b34801561028e57600080fd5b506102a261029d366004611d0e565b6106f4565b005b3480156102b057600080fd5b506102a2610703565b3480156102c557600080fd5b506102e66102d4366004611cd9565b600d6020526000908152604090205481565b60405190815260200161021f565b34801561030057600080fd5b506008546102e6565b34801561031557600080fd5b506102e66301e1338081565b34801561032d57600080fd5b5061034161033c366004611d38565b6107e0565b60405161021f93929190611d8e565b34801561035c57600080fd5b506102a261036b366004611df9565b61097f565b34801561037c57600080fd5b5061021361038b366004611d38565b610a0f565b34801561039c57600080fd5b506102e66103ab366004611d0e565b610a75565b3480156103bc57600080fd5b5061026a7f000000000000000000000000000000000000000000000000000000000000000081565b3480156103f057600080fd5b506102a26103ff366004611df9565b610ada565b34801561041057600080fd5b506102e661041f366004611cd9565b610afa565b34801561043057600080fd5b506102a261043f366004611e35565b610b53565b34801561045057600080fd5b506102a261045f366004611cd9565b610ba6565b34801561047057600080fd5b50600f5461026a906001600160a01b031681565b34801561049057600080fd5b5061026a61049f366004611cd9565b610ce7565b3480156104b057600080fd5b506102e66104bf366004611d38565b610cf2565b3480156104d057600080fd5b506102a2610d3a565b3480156104e557600080fd5b506102e6674563918244f4000081565b34801561050157600080fd5b50600a546001600160a01b031661026a565b34801561051f57600080fd5b5061023d610d4c565b34801561053457600080fd5b506102a2610543366004611ea7565b610d5b565b34801561055457600080fd5b506102a2610563366004611ef9565b610d66565b34801561057457600080fd5b5061023d610583366004611cd9565b610d7e565b34801561059457600080fd5b506102e66105a3366004611cd9565b610de6565b3480156105b457600080fd5b506102a26105c3366004611df9565b610e6a565b3480156105d457600080fd5b506102136105e3366004611fd5565b610fcf565b3480156105f457600080fd5b506102a2610603366004611d38565b610ffd565b34801561061457600080fd5b506102a2610623366004611d38565b6110a0565b6000610633826110db565b92915050565b60606000805461064890612008565b80601f016020809104026020016040519081016040528092919081815260200182805461067490612008565b80156106c15780601f10610696576101008083540402835291602001916106c1565b820191906000526020600020905b8154815290600101906020018083116106a457829003601f168201915b5050505050905090565b60006106d682611100565b506000828152600460205260409020546001600160a01b0316610633565b6106ff828233611139565b5050565b61070b611146565b600f5461074f906001600160a01b037f0000000000000000000000000000000000000000000000000000000000000000811691339116674563918244f40000611170565b600c80546000918261076083612058565b91905055905061077033826111d7565b60006107806301e1338042612071565b6000838152600d60205260409081902082905551909150829033907ff2865733c560f01a6467cfb44c0992eee40fbd2efa39b93d19e5eff39ae14498906107ca9085815260200190565b60405180910390a350506107de6001600b55565b565b606080606060006107f085610cf2565b90508067ffffffffffffffff81111561080b5761080b611ee3565b604051908082528060200260200182016040528015610834578160200160208202803683370190505b5093508067ffffffffffffffff81111561085057610850611ee3565b604051908082528060200260200182016040528015610879578160200160208202803683370190505b5092508067ffffffffffffffff81111561089557610895611ee3565b6040519080825280602002602001820160405280156108be578160200160208202803683370190505b50915060005b818110156109765760006108d88783610a75565b9050808683815181106108ed576108ed612084565b602002602001018181525050600d60008281526020019081526020016000205485838151811061091f5761091f612084565b60200260200101818152505042600d6000838152602001908152602001600020541184838151811061095357610953612084565b91151560209283029190910190910152508061096e81612058565b9150506108c4565b50509193909250565b6001600160a01b0382166109ae57604051633250574960e11b8152600060048201526024015b60405180910390fd5b60006109bb8383336111f1565b9050836001600160a01b0316816001600160a01b031614610a09576040516364283d7b60e01b81526001600160a01b03808616600483015260248201849052821660448201526064016109a5565b50505050565b600080610a1b83610cf2565b905060005b81811015610a6b576000610a348583610a75565b6000818152600d6020526040902054909150421015610a5857506001949350505050565b5080610a6381612058565b915050610a20565b5060009392505050565b6000610a8083610cf2565b8210610ab15760405163295f44f760e21b81526001600160a01b0384166004820152602481018390526044016109a5565b506001600160a01b03919091166000908152600660209081526040808320938352929052205490565b610af583838360405180602001604052806000815250610d66565b505050565b6000610b0560085490565b8210610b2e5760405163295f44f760e21b815260006004820152602481018390526044016109a5565b60088281548110610b4157610b41612084565b90600052602060002001549050919050565b610b5b611206565b600e610b688284836120e0565b507f6741b2fc379fad678116fe3d4d4b9a1a184ab53ba36b86ad0fa66340b1ab41ad8282604051610b9a9291906121a0565b60405180910390a15050565b610bae611146565b6000818152600260205260409020546001600160a01b0316610c095760405162461bcd60e51b8152602060048201526014602482015273151bdad95b88191bd95cc81b9bdd08195e1a5cdd60621b60448201526064016109a5565b600f54610c4d906001600160a01b037f0000000000000000000000000000000000000000000000000000000000000000811691339116674563918244f40000611170565b6000818152600d60205260408120549042821015610c7a57610c736301e1338042612071565b9050610c8b565b610c886301e1338083612071565b90505b6000838152600d6020526040908190208290555183907ff31970c2896632ef001d5a52920e1d099b23a57ee9a2dc661703cf93946ae3ba90610cd09084815260200190565b60405180910390a25050610ce46001600b55565b50565b600061063382611100565b60006001600160a01b038216610d1e576040516322718ad960e21b8152600060048201526024016109a5565b506001600160a01b031660009081526003602052604090205490565b610d42611206565b6107de6000611233565b60606001805461064890612008565b6106ff338383611285565b610d7184848461097f565b610a09338585858561131c565b6060610d8982611100565b506000610d94611447565b90506000815111610db45760405180602001604052806000815250610ddf565b80610dbe84611456565b604051602001610dcf9291906121cf565b6040516020818303038152906040525b9392505050565b6000818152600260205260408120546001600160a01b0316610e415760405162461bcd60e51b8152602060048201526014602482015273151bdad95b88191bd95cc81b9bdd08195e1a5cdd60621b60448201526064016109a5565b6000828152600d6020526040902054428111610e605750600092915050565b610ddf42826121fe565b610e72611206565b6001600160a01b038216610ebc5760405162461bcd60e51b8152602060048201526011602482015270125b9d985b1a59081c9958da5c1a595b9d607a1b60448201526064016109a5565b6001600160a01b038316610f69576000826001600160a01b03168260405160006040518083038185875af1925050503d8060008114610f17576040519150601f19603f3d011682016040523d82523d6000602084013e610f1c565b606091505b5050905080610f635760405162461bcd60e51b8152602060048201526013602482015272109390881d1c985b9cd9995c8819985a5b1959606a1b60448201526064016109a5565b50610f7d565b610f7d6001600160a01b03841683836114e9565b816001600160a01b0316836001600160a01b03167fd1c19fbcd4551a5edfb66d43d2e337c04837afda3482b42bdf569a8fccdae5fb83604051610fc291815260200190565b60405180910390a3505050565b6001600160a01b03918216600090815260056020908152604080832093909416825291909152205460ff1690565b611005611206565b6001600160a01b03811661104e5760405162461bcd60e51b815260206004820152601060248201526f496e76616c696420747265617375727960801b60448201526064016109a5565b600f80546001600160a01b038381166001600160a01b0319831681179093556040519116919082907f4ab5be82436d353e61ca18726e984e561f5c1cc7c6d38b29d2553c790434705a90600090a35050565b6110a8611206565b6001600160a01b0381166110d257604051631e4fbdf760e01b8152600060048201526024016109a5565b610ce481611233565b60006001600160e01b0319821663780e9d6360e01b148061063357506106338261151a565b6000818152600260205260408120546001600160a01b03168061063357604051637e27328960e01b8152600481018490526024016109a5565b610af5838383600161156a565b6002600b540361116957604051633ee5aeb560e01b815260040160405180910390fd5b6002600b55565b6040516001600160a01b038481166024830152838116604483015260648201839052610a099186918216906323b872dd906084015b604051602081830303815290604052915060e01b6020820180516001600160e01b038381831617835250505050611670565b6106ff8282604051806020016040528060008152506116e1565b60006111fe8484846116f9565b949350505050565b600a546001600160a01b031633146107de5760405163118cdaa760e01b81523360048201526024016109a5565b600a80546001600160a01b038381166001600160a01b0319831681179093556040519116919082907f8be0079c531659141344cd1fd0a4f28419497f9722a3daafe3b4186f6b6457e090600090a35050565b6001600160a01b0382166112b757604051630b61174360e31b81526001600160a01b03831660048201526024016109a5565b6001600160a01b03838116600081815260056020908152604080832094871680845294825291829020805460ff191686151590811790915591519182527f17307eab39ab6107e8899845ad3d59bd9653f200f220920489ca2b5937696c319101610fc2565b6001600160a01b0383163b1561144057604051630a85bd0160e11b81526001600160a01b0384169063150b7a029061135e908890889087908790600401612211565b6020604051808303816000875af1925050508015611399575060408051601f3d908101601f191682019092526113969181019061224e565b60015b611402573d8080156113c7576040519150601f19603f3d011682016040523d82523d6000602084013e6113cc565b606091505b5080516000036113fa57604051633250574960e11b81526001600160a01b03851660048201526024016109a5565b805160208201fd5b6001600160e01b03198116630a85bd0160e11b1461143e57604051633250574960e11b81526001600160a01b03851660048201526024016109a5565b505b5050505050565b6060600e805461064890612008565b60606000611463836117c6565b600101905060008167ffffffffffffffff81111561148357611483611ee3565b6040519080825280601f01601f1916602001820160405280156114ad576020820181803683370190505b5090508181016020015b600019016f181899199a1a9b1b9c1cb0b131b232b360811b600a86061a8153600a85049450846114b757509392505050565b6040516001600160a01b03838116602483015260448201839052610af591859182169063a9059cbb906064016111a5565b60006001600160e01b031982166380ac58cd60e01b148061154b57506001600160e01b03198216635b5e139f60e01b145b8061063357506301ffc9a760e01b6001600160e01b0319831614610633565b808061157e57506001600160a01b03821615155b1561164057600061158e84611100565b90506001600160a01b038316158015906115ba5750826001600160a01b0316816001600160a01b031614155b80156115cd57506115cb8184610fcf565b155b156115f65760405163a9fbf51f60e01b81526001600160a01b03841660048201526024016109a5565b811561163e5783856001600160a01b0316826001600160a01b03167f8c5be1e5ebec7d5bd14f71427d1e84f3dd0314c0f7b2291e5b200ac8c7c3b92560405160405180910390a45b505b5050600090815260046020526040902080546001600160a01b0319166001600160a01b0392909216919091179055565b600080602060008451602086016000885af180611693576040513d6000823e3d81fd5b50506000513d915081156116ab5780600114156116b8565b6001600160a01b0384163b155b15610a0957604051635274afe760e01b81526001600160a01b03851660048201526024016109a5565b6116eb838361189e565b610af533600085858561131c565b600080611707858585611903565b90506001600160a01b0381166117645761175f84600880546000838152600960205260408120829055600182018355919091527ff3f7a9fe364faab93b216da50a3214154f22a0a2b415b23a84c8169e8b636ee30155565b611787565b846001600160a01b0316816001600160a01b0316146117875761178781856119fc565b6001600160a01b0385166117a35761179e84611a7d565b6111fe565b846001600160a01b0316816001600160a01b0316146111fe576111fe8585611b2c565b60008072184f03e93ff9f4daa797ed6e38ed64bf6a1f0160401b83106118055772184f03e93ff9f4daa797ed6e38ed64bf6a1f0160401b830492506040015b6d04ee2d6d415b85acef81000000008310611831576d04ee2d6d415b85acef8100000000830492506020015b662386f26fc10000831061184f57662386f26fc10000830492506010015b6305f5e1008310611867576305f5e100830492506008015b612710831061187b57612710830492506004015b6064831061188d576064830492506002015b600a83106106335760010192915050565b6001600160a01b0382166118c857604051633250574960e11b8152600060048201526024016109a5565b60006118d6838360006111f1565b90506001600160a01b03811615610af5576040516339e3563760e11b8152600060048201526024016109a5565b6000828152600260205260408120546001600160a01b039081169083161561193057611930818486611b7c565b6001600160a01b0381161561196e5761194d60008560008061156a565b6001600160a01b038116600090815260036020526040902080546000190190555b6001600160a01b0385161561199d576001600160a01b0385166000908152600360205260409020805460010190555b60008481526002602052604080822080546001600160a01b0319166001600160a01b0389811691821790925591518793918516917fddf252ad1be2c89b69c2b068fc378daa952ba7f163c4a11628f55a4df523b3ef91a4949350505050565b6000611a0783610cf2565b6000838152600760209081526040808320546001600160a01b0388168452600690925290912091925090818314611a5e57600083815260208281526040808320548584528184208190558352600790915290208290555b6000938452600760209081526040808620869055938552525081205550565b600854600090611a8f906001906121fe565b60008381526009602052604081205460088054939450909284908110611ab757611ab7612084565b906000526020600020015490508060088381548110611ad857611ad8612084565b6000918252602080832090910192909255828152600990915260408082208490558582528120556008805480611b1057611b1061226b565b6001900381819060005260206000200160009055905550505050565b60006001611b3984610cf2565b611b4391906121fe565b6001600160a01b039093166000908152600660209081526040808320868452825280832085905593825260079052919091209190915550565b611b87838383611be0565b610af5576001600160a01b038316611bb557604051637e27328960e01b8152600481018290526024016109a5565b60405163177e802f60e01b81526001600160a01b0383166004820152602481018290526044016109a5565b60006001600160a01b038316158015906111fe5750826001600160a01b0316846001600160a01b03161480611c1a5750611c1a8484610fcf565b806111fe5750506000908152600460205260409020546001600160a01b03908116911614919050565b6001600160e01b031981168114610ce457600080fd5b600060208284031215611c6b57600080fd5b8135610ddf81611c43565b60005b83811015611c91578181015183820152602001611c79565b50506000910152565b60008151808452611cb2816020860160208601611c76565b601f01601f19169290920160200192915050565b602081526000610ddf6020830184611c9a565b600060208284031215611ceb57600080fd5b5035919050565b80356001600160a01b0381168114611d0957600080fd5b919050565b60008060408385031215611d2157600080fd5b611d2a83611cf2565b946020939093013593505050565b600060208284031215611d4a57600080fd5b610ddf82611cf2565b600081518084526020808501945080840160005b83811015611d8357815187529582019590820190600101611d67565b509495945050505050565b606081526000611da16060830186611d53565b602083820381850152611db48287611d53565b8481036040860152855180825282870193509082019060005b81811015611deb578451151583529383019391830191600101611dcd565b509098975050505050505050565b600080600060608486031215611e0e57600080fd5b611e1784611cf2565b9250611e2560208501611cf2565b9150604084013590509250925092565b60008060208385031215611e4857600080fd5b823567ffffffffffffffff80821115611e6057600080fd5b818501915085601f830112611e7457600080fd5b813581811115611e8357600080fd5b866020828501011115611e9557600080fd5b60209290920196919550909350505050565b60008060408385031215611eba57600080fd5b611ec383611cf2565b915060208301358015158114611ed857600080fd5b809150509250929050565b634e487b7160e01b600052604160045260246000fd5b60008060008060808587031215611f0f57600080fd5b611f1885611cf2565b9350611f2660208601611cf2565b925060408501359150606085013567ffffffffffffffff80821115611f4a57600080fd5b818701915087601f830112611f5e57600080fd5b813581811115611f7057611f70611ee3565b604051601f8201601f19908116603f01168101908382118183101715611f9857611f98611ee3565b816040528281528a6020848701011115611fb157600080fd5b82602086016020830137600060208483010152809550505050505092959194509250565b60008060408385031215611fe857600080fd5b611ff183611cf2565b9150611fff60208401611cf2565b90509250929050565b600181811c9082168061201c57607f821691505b60208210810361203c57634e487b7160e01b600052602260045260246000fd5b50919050565b634e487b7160e01b600052601160045260246000fd5b60006001820161206a5761206a612042565b5060010190565b8082018082111561063357610633612042565b634e487b7160e01b600052603260045260246000fd5b601f821115610af557600081815260208120601f850160051c810160208610156120c15750805b601f850160051c820191505b8181101561143e578281556001016120cd565b67ffffffffffffffff8311156120f8576120f8611ee3565b61210c836121068354612008565b8361209a565b6000601f84116001811461214057600085156121285750838201355b600019600387901b1c1916600186901b178355611440565b600083815260209020601f19861690835b828110156121715786850135825560209485019460019092019101612151565b508682101561218e5760001960f88860031b161c19848701351681555b505060018560011b0183555050505050565b60208152816020820152818360408301376000818301604090810191909152601f909201601f19160101919050565b600083516121e1818460208801611c76565b8351908301906121f5818360208801611c76565b01949350505050565b8181038181111561063357610633612042565b6001600160a01b038581168252841660208201526040810183905260806060820181905260009061224490830184611c9a565b9695505050505050565b60006020828403121561226057600080fd5b8151610ddf81611c43565b634e487b7160e01b600052603160045260246000fdfea264697066735822122053da1cad9076dd2aa3f5191b93bf6627f689a161b56a83f776cb33378ccb015664736f6c63430008140033",
  "linkReferences": {},
  "deployedLinkReferences": {}
}