{
  "_format": "hh-sol-artifact-1",
  "contractName": "ArcSignPro",
  "sourceName": "contracts/ArcSignPro.sol",
  "abi": [
    {
      "inputs": [
        {
          "internalType": "address",
          "name": "_paymentToken",
          "type": "address"
        },
        {
          "internalType": "address",
          "name": "_treasury",
          "type": "address"
        }
      ],
      "stateMutability": "nonpayable",
      "type": "constructor"
    },
    {
      "inputs": [],
      "name": "ERC721EnumerableForbiddenBatchMint",
      "type": "error"
    },
    {
      "inputs": [
        {
          "internalType": "address",
          "name": "sender",
          "type": "address"
        },
        {
          "internalType": "uint256",
          "name": "tokenId",
          "type": "uint256"
        },
        {
          "internalType": "address",
          "name": "owner",
          "type": "address"
        }
      ],
      "name": "ERC721IncorrectOwner",
      "type": "error"
    },
    {
      "inputs": [
        {
          "internalType": "address",
          "name": "operator",
          "type": "address"
        },
        {
          "internalType": "uint256",
          "name": "tokenId",
          "type": "uint256"
        }
      ],
      "name": "ERC721InsufficientApproval",
      "type": "error"
    },
    {
      "inputs": [
        {
          "internalType": "address",
          "name": "approver",
          "type": "address"
        }
      ],
      "name": "ERC721InvalidApprover",
      "type": "error"
    },
    {
      "inputs": [
        {
          "internalType": "address",
          "name": "operator",
          "type": "address"
        }
      ],
      "name": "ERC721InvalidOperator",
      "type": "error"
    },
    {
      "inputs": [
        {
          "internalType": "address",
          "name": "owner",
          "type": "address"
        }
      ],
      "name": "ERC721InvalidOwner",
      "type": "error"
    },
    {
      "inputs": [
        {
          "internalType": "address",
          "name": "receiver",
          "type": "address"
        }
      ],
      "name": "ERC721InvalidReceiver",
      "type": "error"
    },
    {
      "inputs": [
        {
          "internalType": "address",
          "name": "sender",
          "type": "address"
        }
      ],
      "name": "ERC721InvalidSender",
      "type": "error"
    },
    {
      "inputs": [
        {
          "internalType": "uint256",
          "name": "tokenId",
          "type": "uint256"
        }
      ],
      "name": "ERC721NonexistentToken",
      "type": "error"
    },
    {
      "inputs": [
        {
          "internalType": "address",
          "name": "owner",
          "type": "address"
        },
        {
          "internalType": "uint256",
          "name": "index",
          "type": "uint256"
        }
      ],
      "name": "ERC721OutOfBoundsIndex",
      "type": "error"
    },
    {
      "inputs": [
        {
          "internalType": "address",
          "name": "owner",
          "type": "address"
        }
      ],
      "name": "OwnableInvalidOwner",
      "type": "error"
    },
    {
      "inputs": [
        {
          "internalType": "address",
          "name": "account",
          "type": "address"
        }
      ],
      "name": "OwnableUnauthorizedAccount",
      "type": "error"
    },
    {
      "inputs": [],
      "name": "ReentrancyGuardReentrantCall",
      "type": "error"
    },
    {
      "inputs": [
        {
          "internalType": "address",
          "name": "token",
          "type": "address"
        }
      ],
      "name": "SafeERC20FailedOperation",
      "type": "error"
    },
    {
      "anonymous": false,
      "inputs": [
        {
          "indexed": true,
          "internalType": "address",
          "name": "owner",
          "type": "address"
        },
        {
          "indexed": true,
          "internalType": "address",
          "name": "approved",
          "type": "address"
        },
        {
          "indexed": true,
          "internalType": "uint256",
          "name": "tokenId",
          "type": "uint256"
        }
      ],
      "name": "Approval",
      "type": "event"
    },
    {
      "anonymous": false,
      "inputs": [
        {
          "indexed": true,
          "internalType": "address",
          "name": "owner",
          "type": "address"
        },
        {
          "indexed": true,
          "internalType": "address",
          "name": "operator",
          "type": "address"
        },
        {
          "indexed": false,
          "internalType": "bool",
          "name": "approved",
          "type": "bool"
        }
      ],
      "name": "ApprovalForAll",
      "type": "event"
    },
    {
      "anonymous": false,
      "inputs": [
        {
          "indexed": false,
          "internalType": "string",
          "name": "newBaseURI",
          "type": "string"
        }
      ],
      "name": "BaseURIUpdated",
      "type": "event"
    },
    {
      "anonymous": false,
      "inputs": [
        {
          "indexed": true,
          "internalType": "uint256",
          "name": "tokenId",
          "type": "uint256"
        },
        {
          "indexed": false,
          "internalType": "bytes32",
          "name": "deviceHash",
          "type": "bytes32"
        },
        {
          "indexed": true,
          "internalType": "address",
          "name": "owner",
          "type": "address"
        }
      ],
      "name": "DeviceBound",
      "type": "event"
    },
    {
      "anonymous": false,
      "inputs": [
        {
          "indexed": true,
          "internalType": "uint256",
          "name": "tokenId",
          "type": "uint256"
        }
      ],
      "name": "DeviceUnbound",
      "type": "event"
    },
    {
      "anonymous": false,
      "inputs": [
        {
          "indexed": true,
          "internalType": "address",
          "name": "owner",
          "type": "address"
        },
        {
          "indexed": true,
          "internalType": "uint256",
          "name": "tokenId",
          "type": "uint256"
        },
        {
          "indexed": false,
          "internalType": "uint256",
          "name": "expiresAt",
          "type": "uint256"
        }
      ],
      "name": "MembershipMinted",
      "type": "event"
    },
    {
      "anonymous": false,
      "inputs": [
        {
          "indexed": true,
          "internalType": "uint256",
          "name": "tokenId",
          "type": "uint256"
        },
        {
          "indexed": false,
          "internalType": "uint256",
          "name": "newExpiresAt",
          "type": "uint256"
        }
      ],
      "name": "MembershipRenewed",
      "type": "event"
    },
    {
      "anonymous": false,
      "inputs": [
        {
          "indexed": true,
          "internalType": "address",
          "name": "previousOwner",
          "type": "address"
        },
        {
          "indexed": true,
          "internalType": "address",
          "name": "newOwner",
          "type": "address"
        }
      ],
      "name": "OwnershipTransferred",
      "type": "event"
    },
    {
      "anonymous": false,
      "inputs": [
        {
          "indexed": true,
          "internalType": "address",
          "name": "from",
          "type": "address"
        },
        {
          "indexed": true,
          "internalType": "address",
          "name": "to",
          "type": "address"
        },
        {
          "indexed": true,
          "internalType": "uint256",
          "name": "tokenId",
          "type": "uint256"
        }
      ],
      "name": "Transfer",
      "type": "event"
    },
    {
      "anonymous": false,
      "inputs": [
        {
          "indexed": true,
          "internalType": "address",
          "name": "oldTreasury",
          "type": "address"
        },
        {
          "indexed": true,
          "internalType": "address",
          "name": "newTreasury",
          "type": "address"
        }
      ],
      "name": "TreasuryUpdated",
      "type": "event"
    },
    {
      "anonymous": false,
      "inputs": [
        {
          "indexed": true,
          "internalType": "address",
          "name": "token",
          "type": "address"
        },
        {
          "indexed": true,
          "internalType": "address",
          "name": "to",
          "type": "address"
        },
        {
          "indexed": false,
          "internalType": "uint256",
          "name": "amount",
          "type": "uint256"
        }
      ],
      "name": "Withdrawn",
      "type": "event"
    },
    {
      "inputs": [],
      "name": "DURATION",
      "outputs": [
        {
          "internalType": "uint256",
          "name": "",
          "type": "uint256"
        }
      ],
      "stateMutability": "view",
      "type": "function"
    },
    {
      "inputs": [],
      "name": "PRICE",
      "outputs": [
        {
          "internalType": "uint256",
          "name": "",
          "type": "uint256"
        }
      ],
      "stateMutability": "view",
      "type": "function"
    },
    {
      "inputs": [
        {
          "internalType": "address",
          "name": "to",
          "type": "address"
        },
        {
          "internalType": "uint256",
          "name": "tokenId",
          "type": "uint256"
        }
      ],
      "name": "approve",
      "outputs": [],
      "stateMutability": "nonpayable",
      "type": "function"
    },
    {
      "inputs": [
        {
          "internalType": "address",
          "name": "owner",
          "type": "address"
        }
      ],
      "name": "balanceOf",
      "outputs": [
        {
          "internalType": "uint256",
          "name": "",
          "type": "uint256"
        }
      ],
      "stateMutability": "view",
      "type": "function"
    },
    {
      "inputs": [
        {
          "internalType": "uint256",
          "name": "tokenId",
          "type": "uint256"
        },
        {
          "internalType": "bytes32",
          "name": "deviceHash",
          "type": "bytes32"
        }
      ],
      "name": "bindDevice",
      "outputs": [],
      "stateMutability": "nonpayable",
      "type": "function"
    },
    {
      "inputs": [
        {
          "internalType": "uint256",
          "name": "",
          "type": "uint256"
        }
      ],
      "name": "deviceBindings",
      "outputs": [
        {
          "internalType": "bytes32",
          "name": "",
          "type": "bytes32"
        }
      ],
      "stateMutability": "view",
      "type": "function"
    },
    {
      "inputs": [
        {
          "internalType": "uint256",
          "name": "",
          "type": "uint256"
        }
      ],
      "name": "expiresAt",
      "outputs": [
        {
          "internalType": "uint256",
          "name": "",
          "type": "uint256"
        }
      ],
      "stateMutability": "view",
      "type": "function"
    },
    {
      "inputs": [
        {
          "internalType": "uint256",
          "name": "tokenId",
          "type": "uint256"
        }
      ],
      "name": "getApproved",
      "outputs": [
        {
          "internalType": "address",
          "name": "",
          "type": "address"
        }
      ],
      "stateMutability": "view",
      "type": "function"
    },
    {
      "inputs": [
        {
          "internalType": "address",
          "name": "owner",
          "type": "address"
        }
      ],
      "name": "getDeviceBindings",
      "outputs": [
        {
          "internalType": "uint256[]",
          "name": "tokenIds",
          "type": "uint256[]"
        },
        {
          "internalType": "bytes32[]",
          "name": "bindings",
          "type": "bytes32[]"
        },
        {
          "internalType": "bool[]",
          "name": "bound",
          "type": "bool[]"
        }
      ],
      "stateMutability": "view",
      "type": "function"
    },
    {
      "inputs": [
        {
          "internalType": "address",
          "name": "owner",
          "type": "address"
        }
      ],
      "name": "getMemberships",
      "outputs": [
        {
          "internalType": "uint256[]",
          "name": "tokenIds",
          "type": "uint256[]"
        },
        {
          "internalType": "uint256[]",
          "name": "expirations",
          "type": "uint256[]"
        },
        {
          "internalType": "bool[]",
          "name": "valid",
          "type": "bool[]"
        }
      ],
      "stateMutability": "view",
      "type": "function"
    },
    {
      "inputs": [
        {
          "internalType": "address",
          "name": "owner",
          "type": "address"
        },
        {
          "internalType": "address",
          "name": "operator",
          "type": "address"
        }
      ],
      "name": "isApprovedForAll",
      "outputs": [
        {
          "internalType": "bool",
          "name": "",
          "type": "bool"
        }
      ],
      "stateMutability": "view",
      "type": "function"
    },
    {
      "inputs": [
        {
          "internalType": "uint256",
          "name": "tokenId",
          "type": "uint256"
        }
      ],
      "name": "isBound",
      "outputs": [
        {
          "internalType": "bool",
          "name": "",
          "type": "bool"
        }
      ],
      "stateMutability": "view",
      "type": "function"
    },
    {
      "inputs": [
        {
          "internalType": "address",
          "name": "owner",
          "type": "address"
        }
      ],
      "name": "isValidMember",
      "outputs": [
        {
          "internalType": "bool",
          "name": "",
          "type": "bool"
        }
      ],
      "stateMutability": "view",
      "type": "function"
    },
    {
      "inputs": [],
      "name": "mint",
      "outputs": [],
      "stateMutability": "nonpayable",
      "type": "function"
    },
    {
      "inputs": [],
      "name": "name",
      "outputs": [
        {
          "internalType": "string",
          "name": "",
          "type": "string"
        }
      ],
      "stateMutability": "view",
      "type": "function"
    },
    {
      "inputs": [],
      "name": "owner",
      "outputs": [
        {
          "internalType": "address",
          "name": "",
          "type": "address"
        }
      ],
      "stateMutability": "view",
      "type": "function"
    },
    {
      "inputs": [
        {
          "internalType": "uint256",
          "name": "tokenId",
          "type": "uint256"
        }
      ],
      "name": "ownerOf",
      "outputs": [
        {
          "internalType": "address",
          "name": "",
          "type": "address"
        }
      ],
      "stateMutability": "view",
      "type": "function"
    },
    {
      "inputs": [],
      "name": "paymentToken",
      "outputs": [
        {
          "internalType": "contract IERC20",
          "name": "",
          "type": "address"
        }
      ],
      "stateMutability": "view",
      "type": "function"
    },
    {
      "inputs": [
        {
          "internalType": "uint256",
          "name": "tokenId",
          "type": "uint256"
        }
      ],
      "name": "renew",
      "outputs": [],
      "stateMutability": "nonpayable",
      "type": "function"
    },
    {
      "inputs": [],
      "name": "renounceOwnership",
      "outputs": [],
      "stateMutability": "nonpayable",
      "type": "function"
    },
    {
      "inputs": [
        {
          "internalType": "address",
          "name": "from",
          "type": "address"
        },
        {
          "internalType": "address",
          "name": "to",
          "type": "address"
        },
        {
          "internalType": "uint256",
          "name": "tokenId",
          "type": "uint256"
        }
      ],
      "name": "safeTransferFrom",
      "outputs": [],
      "stateMutability": "nonpayable",
      "type": "function"
    },
    {
      "inputs": [
        {
          "internalType": "address",
          "name": "from",
          "type": "address"
        },
        {
          "internalType": "address",
          "name": "to",
          "type": "address"
        },
        {
          "internalType": "uint256",
          "name": "tokenId",
          "type": "uint256"
        },
        {
          "internalType": "bytes",
          "name": "data",
          "type": "bytes"
        }
      ],
      "name": "safeTransferFrom",
      "outputs": [],
      "stateMutability": "nonpayable",
      "type": "function"
    },
    {
      "inputs": [
        {
          "internalType": "address",
          "name": "operator",
          "type": "address"
        },
        {
          "internalType": "bool",
          "name": "approved",
          "type": "bool"
        }
      ],
      "name": "setApprovalForAll",
      "outputs": [],
      "stateMutability": "nonpayable",
      "type": "function"
    },
    {
      "inputs": [
        {
          "internalType": "string",
          "name": "baseURI",
          "type": "string"
        }
      ],
      "name": "setBaseURI",
      "outputs": [],
      "stateMutability": "nonpayable",
      "type": "function"
    },
    {
      "inputs": [
        {
          "internalType": "address",
          "name": "newTreasury",
          "type": "address"
        }
      ],
      "name": "setTreasury",
      "outputs": [],
      "stateMutability": "nonpayable",
      "type": "function"
    },
    {
      "inputs": [
        {
          "internalType": "bytes4",
          "name": "interfaceId",
          "type": "bytes4"
        }
      ],
      "name": "supportsInterface",
      "outputs": [
        {
          "internalType": "bool",
          "name": "",
          "type": "bool"
        }
      ],
      "stateMutability": "view",
      "type": "function"
    },
    {
      "inputs": [],
      "name": "symbol",
      "outputs": [
        {
          "internalType": "string",
          "name": "",
          "type": "string"
        }
      ],
      "stateMutability": "view",
      "type": "function"
    },
    {
      "inputs": [
        {
          "internalType": "uint256",
          "name": "tokenId",
          "type": "uint256"
        }
      ],
      "name": "timeUntilExpiry",
      "outputs": [
        {
          "internalType": "uint256",
          "name": "",
          "type": "uint256"
        }
      ],
      "stateMutability": "view",
      "type": "function"
    },
    {
      "inputs": [
        {
          "internalType": "uint256",
          "name": "index",
          "type": "uint256"
        }
      ],
      "name": "tokenByIndex",
      "outputs": [
        {
          "internalType": "uint256",
          "name": "",
          "type": "uint256"
        }
      ],
      "stateMutability": "view",
      "type": "function"
    },
    {
      "inputs": [
        {
          "internalType": "address",
          "name": "owner",
          "type": "address"
        },
        {
          "internalType": "uint256",
          "name": "index",
          "type": "uint256"
        }
      ],
      "name": "tokenOfOwnerByIndex",
      "outputs": [
        {
          "internalType": "uint256",
          "name": "",
          "type": "uint256"
        }
      ],
      "stateMutability": "view",
      "type": "function"
    },
    {
      "inputs": [
        {
          "internalType": "uint256",
          "name": "tokenId",
          "type": "uint256"
        }
      ],
      "name": "tokenURI",
      "outputs": [
        {
          "internalType": "string",
          "name": "",
          "type": "string"
        }
      ],
      "stateMutability": "view",
      "type": "function"
    },
    {
      "inputs": [],
      "name": "totalSupply",
      "outputs": [
        {
          "internalType": "uint256",
          "name": "",
          "type": "uint256"
        }
      ],
      "stateMutability": "view",
      "type": "function"
    },
    {
      "inputs": [
        {
          "internalType": "address",
          "name": "from",
          "type": "address"
        },
        {
          "internalType": "address",
          "name": "to",
          "type": "address"
        },
        {
          "internalType": "uint256",
          "name": "tokenId",
          "type": "uint256"
        }
      ],
      "name": "transferFrom",
      "outputs": [],
      "stateMutability": "nonpayable",
      "type": "function"
    },
    {
      "inputs": [
        {
          "internalType": "address",
          "name": "newOwner",
          "type": "address"
        }
      ],
      "name": "transferOwnership",
      "outputs": [],
      "stateMutability": "nonpayable",
      "type": "function"
    },
    {
      "inputs": [],
      "name": "treasury",
      "outputs": [
        {
          "internalType": "address",
          "name": "",
          "type": "address"
        }
      ],
      "stateMutability": "view",
      "type": "function"
    },
    {
      "inputs": [
        {
          "internalType": "uint256",
          "name": "tokenId",
          "type": "uint256"
        },
        {
          "internalType": "bytes32",
          "name": "deviceHash",
          "type": "bytes32"
        }
      ],
      "name": "verifyDevice",
      "outputs": [
        {
          "internalType": "bool",
          "name": "",
          "type": "bool"
        }
      ],
      "stateMutability": "view",
      "type": "function"
    },
    {
      "inputs": [
        {
          "internalType": "address",
          "name": "token",
          "type": "address"
        },
        {
          "internalType": "address",
          "name": "to",
          "type": "address"
        },
        {
          "internalType": "uint256",
          "name": "amount",
          "type": "uint256"
        }
      ],
      "name": "withdraw",
      "outputs": [],
      "stateMutability": "nonpayable",
      "type": "function"
    },
    {
      "stateMutability": "payable",
      "type": "receive"
    }
  ],
  "bytecode": "0x60a06040523480156200001157600080fd5b5060405162002bb138038062002bb183398101604081905262000034916200021c565b336040518060400160405280600b81526020016a4172635369676e2050726f60a81b8152506040518060400160405280600681526020016541524350524f60d01b8152508160009081620000899190620002f9565b506001620000988282620002f9565b5050506001600160a01b038116620000cb57604051631e4fbdf760e01b8152600060048201526024015b60405180910390fd5b620000d681620001ad565b506001600b556001600160a01b038216620001345760405162461bcd60e51b815260206004820152601560248201527f496e76616c6964207061796d656e7420746f6b656e00000000000000000000006044820152606401620000c2565b6001600160a01b0381166200017f5760405162461bcd60e51b815260206004820152601060248201526f496e76616c696420747265617375727960801b6044820152606401620000c2565b6001600160a01b03918216608052601080546001600160a01b031916919092161790556001600c55620003c5565b600a80546001600160a01b038381166001600160a01b0319831681179093556040519116919082907f8be0079c531659141344cd1fd0a4f28419497f9722a3daafe3b4186f6b6457e090600090a35050565b80516001600160a01b03811681146200021757600080fd5b919050565b600080604083850312156200023057600080fd5b6200023b83620001ff565b91506200024b60208401620001ff565b90509250929050565b634e487b7160e01b600052604160045260246000fd5b600181811c908216806200027f57607f821691505b602082108103620002a057634e487b7160e01b600052602260045260246000fd5b50919050565b601f821115620002f457600081815260208120601f850160051c81016020861015620002cf5750805b601f850160051c820191505b81811015620002f057828155600101620002db565b5050505b505050565b81516001600160401b0381111562000315576200031562000254565b6200032d816200032684546200026a565b84620002a6565b602080601f8311600181146200036557600084156200034c5750858301515b600019600386901b1c1916600185901b178555620002f0565b600085815260208120601f198616915b82811015620003965788860151825594840194600190910190840162000375565b5085821015620003b55787850151600019600388901b60f8161c191681555b5050505050600190811b01905550565b6080516127c2620003ef60003960008181610477015281816109d00152610ff301526127c26000f3fe60806040526004361061021e5760003560e01c80635226380e1161012357806395d89b41116100ab578063d6fd7d5c1161006f578063d6fd7d5c1461068c578063d9caed12146106b9578063e985e9c5146106d9578063f0f44260146106f9578063f2fde38b1461071957600080fd5b806395d89b41146105f7578063a22cb4651461060c578063b88d4fde1461062c578063c87b56dd1461064c578063cae2740c1461066c57600080fd5b80636352211e116100f25780636352211e1461056857806370a0823114610588578063715018a6146105a85780638d859f3e146105bd5780638da5cb5b146105d957600080fd5b80635226380e146104d957806355f804b3146105085780635baa75091461052857806361d027b31461054857600080fd5b80631be05289116101a65780632b01bf51116101755780632b01bf51146104255780632f745c59146104455780633013ce291461046557806342842e0e146104995780634f6ccce7146104b957600080fd5b80631be052891461039e57806320785f9a146103b657806323b872dd146103e55780632754da0a1461040557600080fd5b8063095ea7b3116101ed578063095ea7b3146102e85780630d30f7ee1461030a5780631249c58b1461033957806317c957091461034e57806318160ddd1461038957600080fd5b806301ffc9a71461022a57806302da45c91461025f57806306fdde031461028e578063081812fc146102b057600080fd5b3661022557005b600080fd5b34801561023657600080fd5b5061024a6102453660046120d8565b610739565b60405190151581526020015b60405180910390f35b34801561026b57600080fd5b5061027f61027a366004612111565b61074a565b60405161025693929190612199565b34801561029a57600080fd5b506102a36108ed565b6040516102569190612253565b3480156102bc57600080fd5b506102d06102cb366004612266565b61097f565b6040516001600160a01b039091168152602001610256565b3480156102f457600080fd5b5061030861030336600461227f565b6109a8565b005b34801561031657600080fd5b5061024a6103253660046122a9565b6000918252600e6020526040909120541490565b34801561034557600080fd5b506103086109b7565b34801561035a57600080fd5b5061037b610369366004612266565b600d6020526000908152604090205481565b604051908152602001610256565b34801561039557600080fd5b5060085461037b565b3480156103aa57600080fd5b5061037b6301e1338081565b3480156103c257600080fd5b506103d66103d1366004612111565b610a94565b604051610256939291906122cb565b3480156103f157600080fd5b5061030861040036600461230e565b610c2a565b34801561041157600080fd5b506103086104203660046122a9565b610cba565b34801561043157600080fd5b5061024a610440366004612111565b610de8565b34801561045157600080fd5b5061037b61046036600461227f565b610e4e565b34801561047157600080fd5b506102d07f000000000000000000000000000000000000000000000000000000000000000081565b3480156104a557600080fd5b506103086104b436600461230e565b610eb3565b3480156104c557600080fd5b5061037b6104d4366004612266565b610ed3565b3480156104e557600080fd5b5061024a6104f4366004612266565b6000908152600e6020526040902054151590565b34801561051457600080fd5b5061030861052336600461234a565b610f2c565b34801561053457600080fd5b50610308610543366004612266565b610f7f565b34801561055457600080fd5b506010546102d0906001600160a01b031681565b34801561057457600080fd5b506102d0610583366004612266565b6110c0565b34801561059457600080fd5b5061037b6105a3366004612111565b6110cb565b3480156105b457600080fd5b50610308611113565b3480156105c957600080fd5b5061037b674563918244f4000081565b3480156105e557600080fd5b50600a546001600160a01b03166102d0565b34801561060357600080fd5b506102a3611125565b34801561061857600080fd5b506103086106273660046123bc565b611134565b34801561063857600080fd5b5061030861064736600461240e565b61113f565b34801561065857600080fd5b506102a3610667366004612266565b611157565b34801561067857600080fd5b5061037b610687366004612266565b6111bf565b34801561069857600080fd5b5061037b6106a7366004612266565b600e6020526000908152604090205481565b3480156106c557600080fd5b506103086106d436600461230e565b611243565b3480156106e557600080fd5b5061024a6106f43660046124ea565b6113a8565b34801561070557600080fd5b50610308610714366004612111565b6113d6565b34801561072557600080fd5b50610308610734366004612111565b611479565b6000610744826114b4565b92915050565b6060806060600061075a856110cb565b90508067ffffffffffffffff811115610775576107756123f8565b60405190808252806020026020018201604052801561079e578160200160208202803683370190505b5093508067ffffffffffffffff8111156107ba576107ba6123f8565b6040519080825280602002602001820160405280156107e3578160200160208202803683370190505b5092508067ffffffffffffffff8111156107ff576107ff6123f8565b604051908082528060200260200182016040528015610828578160200160208202803683370190505b50915060005b818110156108e45760006108428783610e4e565b9050808683815181106108575761085761251d565b602002602001018181525050600e6000828152602001908152602001600020548583815181106108895761088961251d565b6020026020010181815250506000801b600e60008381526020019081526020016000205414158483815181106108c1576108c161251d565b9115156020928302919091019091015250806108dc81612549565b91505061082e565b50509193909250565b6060600080546108fc90612562565b80601f016020809104026020016040519081016040528092919081815260200182805461092890612562565b80156109755780601f1061094a57610100808354040283529160200191610975565b820191906000526020600020905b81548152906001019060200180831161095857829003601f168201915b5050505050905090565b600061098a826114d9565b506000828152600460205260409020546001600160a01b0316610744565b6109b3828233611512565b5050565b6109bf61151f565b601054610a03906001600160a01b037f0000000000000000000000000000000000000000000000000000000000000000811691339116674563918244f40000611549565b600c805460009182610a1483612549565b919050559050610a2433826115b0565b6000610a346301e133804261259c565b6000838152600d60205260409081902082905551909150829033907ff2865733c560f01a6467cfb44c0992eee40fbd2efa39b93d19e5eff39ae1449890610a7e9085815260200190565b60405180910390a35050610a926001600b55565b565b60608060606000610aa4856110cb565b90508067ffffffffffffffff811115610abf57610abf6123f8565b604051908082528060200260200182016040528015610ae8578160200160208202803683370190505b5093508067ffffffffffffffff811115610b0457610b046123f8565b604051908082528060200260200182016040528015610b2d578160200160208202803683370190505b5092508067ffffffffffffffff811115610b4957610b496123f8565b604051908082528060200260200182016040528015610b72578160200160208202803683370190505b50915060005b818110156108e4576000610b8c8783610e4e565b905080868381518110610ba157610ba161251d565b602002602001018181525050600d600082815260200190815260200160002054858381518110610bd357610bd361251d565b60200260200101818152505042600d60008381526020019081526020016000205411848381518110610c0757610c0761251d565b911515602092830291909101909101525080610c2281612549565b915050610b78565b6001600160a01b038216610c5957604051633250574960e11b8152600060048201526024015b60405180910390fd5b6000610c668383336115ca565b9050836001600160a01b0316816001600160a01b031614610cb4576040516364283d7b60e01b81526001600160a01b0380861660048301526024820184905282166044820152606401610c50565b50505050565b33610cc4836110c0565b6001600160a01b031614610d065760405162461bcd60e51b81526020600482015260096024820152682737ba1037bbb732b960b91b6044820152606401610c50565b6000828152600e602052604090205415610d525760405162461bcd60e51b815260206004820152600d60248201526c105b1c9958591e48189bdd5b99609a1b6044820152606401610c50565b80610d955760405162461bcd60e51b8152602060048201526013602482015272092dcecc2d8d2c840c8caecd2c6ca40d0c2e6d606b1b6044820152606401610c50565b6000828152600e60205260409081902082905551339083907fb073bcf2cd9254ff6b66db15a666dfd095c1651ad6ca973e2d9f84c4bcf5f75590610ddc9085815260200190565b60405180910390a35050565b600080610df4836110cb565b905060005b81811015610e44576000610e0d8583610e4e565b6000818152600d6020526040902054909150421015610e3157506001949350505050565b5080610e3c81612549565b915050610df9565b5060009392505050565b6000610e59836110cb565b8210610e8a5760405163295f44f760e21b81526001600160a01b038416600482015260248101839052604401610c50565b506001600160a01b03919091166000908152600660209081526040808320938352929052205490565b610ece8383836040518060200160405280600081525061113f565b505050565b6000610ede60085490565b8210610f075760405163295f44f760e21b81526000600482015260248101839052604401610c50565b60088281548110610f1a57610f1a61251d565b90600052602060002001549050919050565b610f3461167d565b600f610f418284836125f5565b507f6741b2fc379fad678116fe3d4d4b9a1a184ab53ba36b86ad0fa66340b1ab41ad8282604051610f739291906126b5565b60405180910390a15050565b610f8761151f565b6000818152600260205260409020546001600160a01b0316610fe25760405162461bcd60e51b8152602060048201526014602482015273151bdad95b88191bd95cc81b9bdd08195e1a5cdd60621b6044820152606401610c50565b601054611026906001600160a01b037f0000000000000000000000000000000000000000000000000000000000000000811691339116674563918244f40000611549565b6000818152600d602052604081205490428210156110535761104c6301e133804261259c565b9050611064565b6110616301e133808361259c565b90505b6000838152600d6020526040908190208290555183907ff31970c2896632ef001d5a52920e1d099b23a57ee9a2dc661703cf93946ae3ba906110a99084815260200190565b60405180910390a250506110bd6001600b55565b50565b6000610744826114d9565b60006001600160a01b0382166110f7576040516322718ad960e21b815260006004820152602401610c50565b506001600160a01b031660009081526003602052604090205490565b61111b61167d565b610a9260006116aa565b6060600180546108fc90612562565b6109b33383836116fc565b61114a848484610c2a565b610cb43385858585611793565b6060611162826114d9565b50600061116d6118be565b9050600081511161118d57604051806020016040528060008152506111b8565b80611197846118cd565b6040516020016111a89291906126e4565b6040516020818303038152906040525b9392505050565b6000818152600260205260408120546001600160a01b031661121a5760405162461bcd60e51b8152602060048201526014602482015273151bdad95b88191bd95cc81b9bdd08195e1a5cdd60621b6044820152606401610c50565b6000828152600d60205260409020544281116112395750600092915050565b6111b84282612713565b61124b61167d565b6001600160a01b0382166112955760405162461bcd60e51b8152602060048201526011602482015270125b9d985b1a59081c9958da5c1a595b9d607a1b6044820152606401610c50565b6001600160a01b038316611342576000826001600160a01b03168260405160006040518083038185875af1925050503d80600081146112f0576040519150601f19603f3d011682016040523d82523d6000602084013e6112f5565b606091505b505090508061133c5760405162461bcd60e51b8152602060048201526013602482015272109390881d1c985b9cd9995c8819985a5b1959606a1b6044820152606401610c50565b50611356565b6113566001600160a01b0384168383611960565b816001600160a01b0316836001600160a01b03167fd1c19fbcd4551a5edfb66d43d2e337c04837afda3482b42bdf569a8fccdae5fb8360405161139b91815260200190565b60405180910390a3505050565b6001600160a01b03918216600090815260056020908152604080832093909416825291909152205460ff1690565b6113de61167d565b6001600160a01b0381166114275760405162461bcd60e51b815260206004820152601060248201526f496e76616c696420747265617375727960801b6044820152606401610c50565b601080546001600160a01b038381166001600160a01b0319831681179093556040519116919082907f4ab5be82436d353e61ca18726e984e561f5c1cc7c6d38b29d2553c790434705a90600090a35050565b61148161167d565b6001600160a01b0381166114ab57604051631e4fbdf760e01b815260006004820152602401610c50565b6110bd816116aa565b60006001600160e01b0319821663780e9d6360e01b1480610744575061074482611991565b6000818152600260205260408120546001600160a01b03168061074457604051637e27328960e01b815260048101849052602401610c50565b610ece83838360016119e1565b6002600b540361154257604051633ee5aeb560e01b815260040160405180910390fd5b6002600b55565b6040516001600160a01b038481166024830152838116604483015260648201839052610cb49186918216906323b872dd906084015b604051602081830303815290604052915060e01b6020820180516001600160e01b038381831617835250505050611ae7565b6109b3828260405180602001604052806000815250611b58565b6000828152600260205260408120546001600160a01b031680158015906115f957506001600160a01b03851615155b80156116175750846001600160a01b0316816001600160a01b031614155b15611669576000848152600e602052604090205415611669576000848152600e60205260408082208290555185917f3b023107b8f121d99939bbc8250ad57d529b9fd002ec2573f2adb146621e50bc91a25b611674858585611b70565b95945050505050565b600a546001600160a01b03163314610a925760405163118cdaa760e01b8152336004820152602401610c50565b600a80546001600160a01b038381166001600160a01b0319831681179093556040519116919082907f8be0079c531659141344cd1fd0a4f28419497f9722a3daafe3b4186f6b6457e090600090a35050565b6001600160a01b03821661172e57604051630b61174360e31b81526001600160a01b0383166004820152602401610c50565b6001600160a01b03838116600081815260056020908152604080832094871680845294825291829020805460ff191686151590811790915591519182527f17307eab39ab6107e8899845ad3d59bd9653f200f220920489ca2b5937696c31910161139b565b6001600160a01b0383163b156118b757604051630a85bd0160e11b81526001600160a01b0384169063150b7a02906117d5908890889087908790600401612726565b6020604051808303816000875af1925050508015611810575060408051601f3d908101601f1916820190925261180d91810190612759565b60015b611879573d80801561183e576040519150601f19603f3d011682016040523d82523d6000602084013e611843565b606091505b50805160000361187157604051633250574960e11b81526001600160a01b0385166004820152602401610c50565b805160208201fd5b6001600160e01b03198116630a85bd0160e11b146118b557604051633250574960e11b81526001600160a01b0385166004820152602401610c50565b505b5050505050565b6060600f80546108fc90612562565b606060006118da83611c45565b600101905060008167ffffffffffffffff8111156118fa576118fa6123f8565b6040519080825280601f01601f191660200182016040528015611924576020820181803683370190505b5090508181016020015b600019016f181899199a1a9b1b9c1cb0b131b232b360811b600a86061a8153600a850494508461192e57509392505050565b6040516001600160a01b03838116602483015260448201839052610ece91859182169063a9059cbb9060640161157e565b60006001600160e01b031982166380ac58cd60e01b14806119c257506001600160e01b03198216635b5e139f60e01b145b8061074457506301ffc9a760e01b6001600160e01b0319831614610744565b80806119f557506001600160a01b03821615155b15611ab7576000611a05846114d9565b90506001600160a01b03831615801590611a315750826001600160a01b0316816001600160a01b031614155b8015611a445750611a4281846113a8565b155b15611a6d5760405163a9fbf51f60e01b81526001600160a01b0384166004820152602401610c50565b8115611ab55783856001600160a01b0316826001600160a01b03167f8c5be1e5ebec7d5bd14f71427d1e84f3dd0314c0f7b2291e5b200ac8c7c3b92560405160405180910390a45b505b5050600090815260046020526040902080546001600160a01b0319166001600160a01b0392909216919091179055565b600080602060008451602086016000885af180611b0a576040513d6000823e3d81fd5b50506000513d91508115611b22578060011415611b2f565b6001600160a01b0384163b155b15610cb457604051635274afe760e01b81526001600160a01b0385166004820152602401610c50565b611b628383611d1d565b610ece336000858585611793565b600080611b7e858585611d82565b90506001600160a01b038116611bdb57611bd684600880546000838152600960205260408120829055600182018355919091527ff3f7a9fe364faab93b216da50a3214154f22a0a2b415b23a84c8169e8b636ee30155565b611bfe565b846001600160a01b0316816001600160a01b031614611bfe57611bfe8185611e7b565b6001600160a01b038516611c1a57611c1584611efc565b611c3d565b846001600160a01b0316816001600160a01b031614611c3d57611c3d8585611fab565b949350505050565b60008072184f03e93ff9f4daa797ed6e38ed64bf6a1f0160401b8310611c845772184f03e93ff9f4daa797ed6e38ed64bf6a1f0160401b830492506040015b6d04ee2d6d415b85acef81000000008310611cb0576d04ee2d6d415b85acef8100000000830492506020015b662386f26fc100008310611cce57662386f26fc10000830492506010015b6305f5e1008310611ce6576305f5e100830492506008015b6127108310611cfa57612710830492506004015b60648310611d0c576064830492506002015b600a83106107445760010192915050565b6001600160a01b038216611d4757604051633250574960e11b815260006004820152602401610c50565b6000611d55838360006115ca565b90506001600160a01b03811615610ece576040516339e3563760e11b815260006004820152602401610c50565b6000828152600260205260408120546001600160a01b0390811690831615611daf57611daf818486611ffb565b6001600160a01b03811615611ded57611dcc6000856000806119e1565b6001600160a01b038116600090815260036020526040902080546000190190555b6001600160a01b03851615611e1c576001600160a01b0385166000908152600360205260409020805460010190555b60008481526002602052604080822080546001600160a01b0319166001600160a01b0389811691821790925591518793918516917fddf252ad1be2c89b69c2b068fc378daa952ba7f163c4a11628f55a4df523b3ef91a4949350505050565b6000611e86836110cb565b6000838152600760209081526040808320546001600160a01b0388168452600690925290912091925090818314611edd57600083815260208281526040808320548584528184208190558352600790915290208290555b6000938452600760209081526040808620869055938552525081205550565b600854600090611f0e90600190612713565b60008381526009602052604081205460088054939450909284908110611f3657611f3661251d565b906000526020600020015490508060088381548110611f5757611f5761251d565b6000918252602080832090910192909255828152600990915260408082208490558582528120556008805480611f8f57611f8f612776565b6001900381819060005260206000200160009055905550505050565b60006001611fb8846110cb565b611fc29190612713565b6001600160a01b039093166000908152600660209081526040808320868452825280832085905593825260079052919091209190915550565b61200683838361205f565b610ece576001600160a01b03831661203457604051637e27328960e01b815260048101829052602401610c50565b60405163177e802f60e01b81526001600160a01b038316600482015260248101829052604401610c50565b60006001600160a01b03831615801590611c3d5750826001600160a01b0316846001600160a01b03161480612099575061209984846113a8565b80611c3d5750506000908152600460205260409020546001600160a01b03908116911614919050565b6001600160e01b0319811681146110bd57600080fd5b6000602082840312156120ea57600080fd5b81356111b8816120c2565b80356001600160a01b038116811461210c57600080fd5b919050565b60006020828403121561212357600080fd5b6111b8826120f5565b600081518084526020808501945080840160005b8381101561215c57815187529582019590820190600101612140565b509495945050505050565b600081518084526020808501945080840160005b8381101561215c57815115158752958201959082019060010161217b565b6060815260006121ac606083018661212c565b82810360208481019190915285518083528682019282019060005b818110156121e3578451835293830193918301916001016121c7565b505084810360408601526121f78187612167565b98975050505050505050565b60005b8381101561221e578181015183820152602001612206565b50506000910152565b6000815180845261223f816020860160208601612203565b601f01601f19169290920160200192915050565b6020815260006111b86020830184612227565b60006020828403121561227857600080fd5b5035919050565b6000806040838503121561229257600080fd5b61229b836120f5565b946020939093013593505050565b600080604083850312156122bc57600080fd5b50508035926020909101359150565b6060815260006122de606083018661212c565b82810360208401526122f0818661212c565b905082810360408401526123048185612167565b9695505050505050565b60008060006060848603121561232357600080fd5b61232c846120f5565b925061233a602085016120f5565b9150604084013590509250925092565b6000806020838503121561235d57600080fd5b823567ffffffffffffffff8082111561237557600080fd5b818501915085601f83011261238957600080fd5b81358181111561239857600080fd5b8660208285010111156123aa57600080fd5b60209290920196919550909350505050565b600080604083850312156123cf57600080fd5b6123d8836120f5565b9150602083013580151581146123ed57600080fd5b809150509250929050565b634e487b7160e01b600052604160045260246000fd5b6000806000806080858703121561242457600080fd5b61242d856120f5565b935061243b602086016120f5565b925060408501359150606085013567ffffffffffffffff8082111561245f57600080fd5b818701915087601f83011261247357600080fd5b813581811115612485576124856123f8565b604051601f8201601f19908116603f011681019083821181831017156124ad576124ad6123f8565b816040528281528a60208487010111156124c657600080fd5b82602086016020830137600060208483010152809550505050505092959194509250565b600080604083850312156124fd57600080fd5b612506836120f5565b9150612514602084016120f5565b90509250929050565b634e487b7160e01b600052603260045260246000fd5b634e487b7160e01b600052601160045260246000fd5b60006001820161255b5761255b612533565b5060010190565b600181811c9082168061257657607f821691505b60208210810361259657634e487b7160e01b600052602260045260246000fd5b50919050565b8082018082111561074457610744612533565b601f821115610ece57600081815260208120601f850160051c810160208610156125d65750805b601f850160051c820191505b818110156118b5578281556001016125e2565b67ffffffffffffffff83111561260d5761260d6123f8565b6126218361261b8354612562565b836125af565b6000601f841160018114612655576000851561263d5750838201355b600019600387901b1c1916600186901b1783556118b7565b600083815260209020601f19861690835b828110156126865786850135825560209485019460019092019101612666565b50868210156126a35760001960f88860031b161c19848701351681555b505060018560011b0183555050505050565b60208152816020820152818360408301376000818301604090810191909152601f909201601f19160101919050565b600083516126f6818460208801612203565b83519083019061270a818360208801612203565b01949350505050565b8181038181111561074457610744612533565b6001600160a01b038581168252841660208201526040810183905260806060820181905260009061230490830184612227565b60006020828403121561276b57600080fd5b81516111b8816120c2565b634e487b7160e01b600052603160045260246000fdfea26469706673582212203cfe541fcb5b8ff7683a19cb182aa23fe4cb294f5b6eef07183a6dacb0a0559464736f6c63430008140033",
  "linkReferences": {},
  "deployedLinkReferences": {}
}