{
  "_format": "hh-sol-artifact-1",
  "contractName": "ArcSignReferral",
  "sourceName": "contracts/ArcSignReferral.sol",
  "abi": [
    {
      "inputs": [],
      "stateMutability": "nonpayable",
      "type": "constructor"
    },
    {
      "inputs": [
        {
          "internalType": "address",
          "name": "owner",
          "type": "address"
        }
      ],
      "name": "OwnableInvalidOwner",
      "type": "error"
    },
    {
      "inputs": [
        {
          "internalType": "address",
          "name": "account",
          "type": "address"
        }
      ],
      "name": "OwnableUnauthorizedAccount",
      "type": "error"
    },
    {
      "anonymous": false,
      "inputs": [
        {
          "indexed": true,
          "internalType": "address",
          "name": "user",
          "type": "address"
        },
        {
          "indexed": false,
          "internalType": "uint32",
          "name": "code",
          "type": "uint32"
        }
      ],
      "name": "CodeRegistered",
      "type": "event"
    },
    {
      "anonymous": false,
      "inputs": [
        {
          "indexed": true,
          "internalType": "address",
          "name": "previousOwner",
          "type": "address"
        },
        {
          "indexed": true,
          "internalType": "address",
          "name": "newOwner",
          "type": "address"
        }
      ],
      "name": "OwnershipTransferred",
      "type": "event"
    },
    {
      "anonymous": false,
      "inputs": [
        {
          "indexed": true,
          "internalType": "address",
          "name": "user",
          "type": "address"
        },
        {
          "indexed": true,
          "internalType": "address",
          "name": "referrer",
          "type": "address"
        },
        {
          "indexed": false,
          "internalType": "uint32",
          "name": "referrerCode",
          "type": "uint32"
        }
      ],
      "name": "ReferrerSet",
      "type": "event"
    },
    {
      "inputs": [
        {
          "internalType": "address",
          "name": "",
          "type": "address"
        }
      ],
      "name": "addressToCode",
      "outputs": [
        {
          "internalType": "uint32",
          "name": "",
          "type": "uint32"
        }
      ],
      "stateMutability": "view",
      "type": "function"
    },
    {
      "inputs": [
        {
          "internalType": "uint32",
          "name": "",
          "type": "uint32"
        }
      ],
      "name": "codeToAddress",
      "outputs": [
        {
          "internalType": "address",
          "name": "",
          "type": "address"
        }
      ],
      "stateMutability": "view",
      "type": "function"
    },
    {
      "inputs": [
        {
          "internalType": "address",
          "name": "user",
          "type": "address"
        }
      ],
      "name": "getCode",
      "outputs": [
        {
          "internalType": "uint32",
          "name": "",
          "type": "uint32"
        }
      ],
      "stateMutability": "view",
      "type": "function"
    },
    {
      "inputs": [
        {
          "internalType": "address",
          "name": "user",
          "type": "address"
        }
      ],
      "name": "getReferralCount",
      "outputs": [
        {
          "internalType": "uint32",
          "name": "",
          "type": "uint32"
        }
      ],
      "stateMutability": "view",
      "type": "function"
    },
    {
      "inputs": [
        {
          "internalType": "address",
          "name": "user",
          "type": "address"
        }
      ],
      "name": "getReferrer",
      "outputs": [
        {
          "internalType": "address",
          "name": "referrer",
          "type": "address"
        },
        {
          "internalType": "uint32",
          "name": "referrerCode",
          "type": "uint32"
        }
      ],
      "stateMutability": "view",
      "type": "function"
    },
    {
      "inputs": [
        {
          "internalType": "address",
          "name": "",
          "type": "address"
        }
      ],
      "name": "hasReferrer",
      "outputs": [
        {
          "internalType": "bool",
          "name": "",
          "type": "bool"
        }
      ],
      "stateMutability": "view",
      "type": "function"
    },
    {
      "inputs": [],
      "name": "nextCode",
      "outputs": [
        {
          "internalType": "uint32",
          "name": "",
          "type": "uint32"
        }
      ],
      "stateMutability": "view",
      "type": "function"
    },
    {
      "inputs": [],
      "name": "owner",
      "outputs": [
        {
          "internalType": "address",
          "name": "",
          "type": "address"
        }
      ],
      "stateMutability": "view",
      "type": "function"
    },
    {
      "inputs": [
        {
          "internalType": "address",
          "name": "",
          "type": "address"
        }
      ],
      "name": "referralCount",
      "outputs": [
        {
          "internalType": "uint32",
          "name": "",
          "type": "uint32"
        }
      ],
      "stateMutability": "view",
      "type": "function"
    },
    {
      "inputs": [
        {
          "internalType": "address",
          "name": "",
          "type": "address"
        }
      ],
      "name": "referrerOf",
      "outputs": [
        {
          "internalType": "address",
          "name": "",
          "type": "address"
        }
      ],
      "stateMutability": "view",
      "type": "function"
    },
    {
      "inputs": [],
      "name": "registerCode",
      "outputs": [
        {
          "internalType": "uint32",
          "name": "",
          "type": "uint32"
        }
      ],
      "stateMutability": "nonpayable",
      "type": "function"
    },
    {
      "inputs": [],
      "name": "renounceOwnership",
      "outputs": [],
      "stateMutability": "nonpayable",
      "type": "function"
    },
    {
      "inputs": [
        {
          "internalType": "uint32",
          "name": "code",
          "type": "uint32"
        }
      ],
      "name": "resolveCode",
      "outputs": [
        {
          "internalType": "address",
          "name": "",
          "type": "address"
        }
      ],
      "stateMutability": "view",
      "type": "function"
    },
    {
      "inputs": [
        {
          "internalType": "uint32",
          "name": "code",
          "type": "uint32"
        }
      ],
      "name": "setReferrer",
      "outputs": [],
      "stateMutability": "nonpayable",
      "type": "function"
    },
    {
      "inputs": [
        {
          "internalType": "address",
          "name": "newOwner",
          "type": "address"
        }
      ],
      "name": "transferOwnership",
      "outputs": [],
      "stateMutability": "nonpayable",
      "type": "function"
    }
  ],
  "bytecode": "0x60806040526000805463ffffffff60a01b1916600160a01b17905534801561002657600080fd5b50338061004d57604051631e4fbdf760e01b81526000600482015260240160405180910390fd5b6100568161005c565b506100ac565b600080546001600160a01b038381166001600160a01b0319831681178455604051919092169283917f8be0079c531659141344cd1fd0a4f28419497f9722a3daafe3b4186f6b6457e09190a35050565b6107ef806100bb6000396000f3fe608060405234801561001057600080fd5b50600436106100f55760003560e01c80638da5cb5b11610097578063d21cacdf11610066578063d21cacdf146102dc578063db74559b14610305578063ee1be6a01461032b578063f2fde38b1461033e57600080fd5b80638da5cb5b1461023957806397bc184d1461025e578063a1e27e861461028d578063c4f74631146102b657600080fd5b80634a9fefc7116100d35780634a9fefc71461018d5780635992491f146101f8578063715018a6146102005780637e105ce21461020a57600080fd5b806307e86507146100fa57806318452cd81461012b57806324acbd691461015e575b600080fd5b60005461011190600160a01b900463ffffffff1681565b60405163ffffffff90911681526020015b60405180910390f35b61014e610139366004610732565b60046020526000908152604090205460ff1681565b6040519015158152602001610122565b61011161016c366004610732565b6001600160a01b031660009081526005602052604090205463ffffffff1690565b6101d461019b366004610732565b6001600160a01b03908116600090815260036020908152604080832054909316808352600290915291902054909163ffffffff90911690565b604080516001600160a01b03909316835263ffffffff909116602083015201610122565b610111610351565b61020861045f565b005b610111610218366004610732565b6001600160a01b031660009081526002602052604090205463ffffffff1690565b6000546001600160a01b03165b6040516001600160a01b039091168152602001610122565b61024661026c366004610762565b63ffffffff166000908152600160205260409020546001600160a01b031690565b61024661029b366004610762565b6001602052600090815260409020546001600160a01b031681565b6101116102c4366004610732565b60026020526000908152604090205463ffffffff1681565b6102466102ea366004610732565b6003602052600090815260409020546001600160a01b031681565b610111610313366004610732565b60056020526000908152604090205463ffffffff1681565b610208610339366004610762565b610473565b61020861034c366004610732565b610677565b3360009081526002602052604081205463ffffffff16156103ae5760405162461bcd60e51b8152602060048201526012602482015271105b1c9958591e481c9959da5cdd195c995960721b60448201526064015b60405180910390fd5b60008054600160a01b900463ffffffff168160146103cb83610788565b82546101009290920a63ffffffff818102199093169183160217909155811660008181526001602090815260408083208054336001600160a01b031990911681179091558084526002835292819020805463ffffffff19168517905551928352929350917f02a8bcc0aafac3e9665fa576ac724e705dc20c3ff9b1e978e9412c4f2f7f2503910160405180910390a2919050565b6104676106b5565b61047160006106e2565b565b3360009081526004602052604090205460ff16156104c15760405162461bcd60e51b815260206004820152600b60248201526a105b1c9958591e481cd95d60aa1b60448201526064016103a5565b60008163ffffffff161180156104f4575063ffffffff81166000908152600160205260409020546001600160a01b031615155b61052f5760405162461bcd60e51b815260206004820152600c60248201526b496e76616c696420636f646560a01b60448201526064016103a5565b63ffffffff8116600090815260016020526040902054336001600160a01b039091160361058e5760405162461bcd60e51b815260206004820152600d60248201526c14d95b19881c9959995c9c985b609a1b60448201526064016103a5565b63ffffffff8082166000908152600160208181526040808420543385526003835281852080546001600160a01b0319166001600160a01b03909216918217905560048352818520805460ff1916909417909355828452600590915282208054919391909116916105fd83610788565b91906101000a81548163ffffffff021916908363ffffffff16021790555050806001600160a01b0316336001600160a01b03167f3ef46a9df186bb13d8ddfe772de5b50d834f9f92bf8d38684be3b47e5824bcb88460405161066b919063ffffffff91909116815260200190565b60405180910390a35050565b61067f6106b5565b6001600160a01b0381166106a957604051631e4fbdf760e01b8152600060048201526024016103a5565b6106b2816106e2565b50565b6000546001600160a01b031633146104715760405163118cdaa760e01b81523360048201526024016103a5565b600080546001600160a01b038381166001600160a01b0319831681178455604051919092169283917f8be0079c531659141344cd1fd0a4f28419497f9722a3daafe3b4186f6b6457e09190a35050565b60006020828403121561074457600080fd5b81356001600160a01b038116811461075b57600080fd5b9392505050565b60006020828403121561077457600080fd5b813563ffffffff8116811461075b57600080fd5b600063ffffffff8083168181036107af57634e487b7160e01b600052601160045260246000fd5b600101939250505056fea2646970667358221220b1c57c81890bf3459be54eac079282d2671a05f21df9cdb924e1b982e710e70764736f6c63430008140033",
  "linkReferences": {},
  "deployedLinkReferences": {}
}